:020000040000FA
:0600000002010A022C3788
:03002B000230B8E8
:0300330002309AFE
:03003B000230D1BF
:0300430002304E3A
:03005300022CAAD2
:03006B00023074EC
:10008300022AEBE5C754F84401F5C77901220000C1
:100093000080FB120086B900030200F4E4792178A2
:1000A30008B800028004F709D8FCE479297802B87B
:1000B30000028004F709D8FCE490028178E7791103
:1000C3008002F0A3D8FCD9FA901367AA82AB83907D
:1000D300013A78CB79048015E493A3AC82AD838A8B
:1000E300828B83F0A3AA82AB838C828D83D8E9D9D8
:1000F300E77582447583FA740412011C7582917545
:100103008300740012011C75D00075813F7518813E
:10011300751902759F00020096C09FF59FE473D086
:100123009F22D083D082C09FE493C0E0740193C028
:10013300E0740293F59F227E069006BA068406FFBA
:100143000000B4000028002800283075A000A0009B
:10015300A000A00000080008E001F000100010005B
:10016300100010001000100050005000500010004C
:100173001000D0070000000000000F000100050080
:10018300307507001000010081FF0000FFFE071C0F
:10019300080408FF02020208025000A0000000E861
:1001A3000302198C010000DE8B02F58B010000C4F1
:1001B3001302FB8B010000B70202F58B010000C59F
:1001C3001302FD8B010000CD0202F58B010000C676
:1001D3001302238C010000CF0202F58B010000C73C
:1001E30013020F8C080000D00202F58B010000C837
:1001F3001302118C010000C913FFFF0100FF20024D
:10020300198C010000F08B02F58B0100002E140203
:10021300158C000000000002F98B030000B10348B5
:100223000F480F480F480F480F480F480F480F4813
:100233000F480F480F480F480F46116411401184AF
:10024300129C127E123330666630300030306666A0
:1002530030300038386666303000666666663030A7
:100263000066663030303000303030306666003043
:1002730030393966660034343434343400666666A3
:100283006666660030303030303000FC0D30303080
:100293003030303030303030FFFF020202020202D1
:1002A300020202010D000000100102198C0100007E
:1002B300DB8B02F58B010000CA14020B8C010000DA
:1002C300B10E02F58B010000CB1402098C01000072
:1002D300ED8702F58B010000CC1402078C010000AE
:1002E3005A8702F58B010000CD1402058C01000032
:1002F300958502F58B010000CE1402038C010000EA
:10030300CB8502F58B010000CF1402FF8B010000A7
:10031300B98502F58B010000D01402138C01000093
:10032300A78502F58B010000D114021B8C0100008C
:100333003E8702F58B010000D214021D8C010000E0
:10034300D31401E803053F1002FF000130750302D7
:100353000106000000000000000000000000000093
:100363000000000000000000000000000000FFFF8C
:100373000600800CE803FEFF01010201060302F000
:10038300FF0201061AFF4C000215E2C56DB5DFFB43
:1003930048D2B060D0F5A71096E000010002CDDE90
:1003A30018E418F018F618EA180A436861726163D2
:1003B3007465726973746963203100024368617202
:1003C30061637465726973746963203200084368FA
:1003D30061726163746572697374696320330010B9
:1003E300436861726163746572697374696320340D
:1003F300000243686172616374657269737469634F
:1004030020350016436861726163746572697374A1
:10041300696320360002198C010000EA8B02F58B18
:10042300010000D91502278C030000121302F78B79
:10043300010000DA1502F58B010000EB1502298C8F
:10044300010000131302F78B010000EC1502F58B7A
:10045300010000FD15022B8C020000141302F78B20
:10046300010000FE1502F58B0100000F16022D8C12
:10047300000000151302F98B030000161302F78B1B
:10048300010000101602F58B0100002116022F8CCB
:10049300040000221302F78B010000221602F58BE1
:1004A300010000331602318C030000271302F98B7D
:1004B3000300003B1302F78B010000341630313286
:1004C3003334353637383941424344454600286E84
:1004D300756C6C20706F696E74657229003F3F3FC5
:1004E300000000807F0000803FF9021550B743BA37
:1004F300510000204100E7DB2E0000A0400800006F
:100503000012012524F0041201253AF004120125FA
:1005130067F00412012597F004120125B8F00412C4
:100523000125E9F0041201253AF10412012551F1E4
:1005330004120125C7E904120125DEE9041201258D
:100543000DEA0412012546EA041201256EEA04129B
:1005530001259CEA04120125B3EA04120125CAEA23
:1005630004120125E0EA0412012507EB0412012518
:100573001AEB0412012530EB0412012543EB04129C
:10058300012568EB041201257E9A031201257D9B48
:1005930003120125A79B03120125FC9B03120125CE
:1005A3001D9C03120125369C03120125389C03125E
:1005B3000125599C031201255C9D03120125199EF7
:1005C30003120125E69E031201254A9F031201250A
:1005D300E19F03120125E49F031201256AA0031280
:1005E3000125ADA003120125FFA00312012536A1A9
:1005F30003120125BCA10312012545A20312012503
:100603008EA2031201259BA2031201259EA20312AF
:100613000125FCA20312012514A3031201258EA3B5
:100623000312012591A303120125B4A3031201258B
:10063300B7A3031201255EA40312012581A40312AB
:10064300012599A403120125C9A403120125D6A4E7
:1006530003120125D9A40312012545A5031201257F
:1006630033A603120125E9A603120125167600120B
:100673000125F6760012012576770012012596777B
:1006830000120125D47700120125277800120125D5
:100693008F7800120125207900120125EB790012D1
:1006A3000125FA7C00120125667E00120125897E50
:1006B30000120125E4D70412012575D9041201257E
:1006C300C6D90412012525DA0412012533DA0412EE
:1006D30001255CDA0412012502B7041201252AB7A9
:1006E3000412012558B7041201258FB704120125FE
:1006F300F7B70412012540B8041201258BB8041280
:100703000125C9B80412012506B90412012534B91B
:1007130004120125DBB904120125E5B904120125F0
:10072300F2B90412012525BA04120125E7BA04120D
:100733000125F3BA041201250BBB0412012515BBD5
:100743000412012593BB0412012597F40412012519
:10075300A5F404120125BDF404120125D5F40412F5
:100763000125EDF40412012535F101120125D3F120
:10077300011201254BF20112012560F3011201253B
:100783009AF30112012543F40112012518F5011210
:1007930001257CF601120125D3F6011201255AF732
:1007A3000112012541F8011201258EF801120125DC
:1007B3001CF90112012540F90112012515FB011253
:1007C300012556FB0112012578FB01120125F9FBD6
:1007D30001120125E3FC01120125A9FD01120125E6
:1007E300DEFF01120125948E04120125668F041287
:1007F30001250F9004120125529004120125DF9068
:10080300041201256B91041201254C920412012557
:100813007B9204120125779304120125BF930412DE
:100823000125C194041201250595041201252B9578
:100833000412012535F9041201258BCC041201257C
:10084300A1CC04120125C7CC04120125EFCD04125B
:100853000125F9CD0412012552CF0412012552D0EE
:10086300041201255CD004120125DCB10412012518
:1008730011B30412012544B3041201258EB30412EB
:1008830001254CB5041201250080021201257E804A
:10089300021201258E8002120125718102120125A7
:1008A3009F8102120125AA8102120125948202125C
:1008B3000125308302120125348502120125EB86BE
:1008C30002120125678702120125448802120125BD
:1008D300728B02120125108C021201256D8D0212FA
:1008E3000125E08E02120125898F02120125D28F84
:1008F30002120125099002120125AE900212012570
:100903002C9102120125FBC10212012550C20212D1
:10091300012595C302120125A5C302120125C8C3EF
:100923000212012513C402120125B8C402120125C3
:10093300AEC50212012578C602120125F0C70212C4
:10094300012532C802120125D0C8021201251DC992
:100953000212012543C90212012531CB02120125DE
:1009630036CB0212012517CD021201256BCD0212DF
:100973000125CDCD02120125F5CD0212012599CE17
:10098300021201255BCF021201258CCF0212012531
:100993008FCF02120125D7CF0212012519D00212DF
:1009A300012580D002120125C8E104120125DBE1F3
:1009B30004120125E4E104120125FDE104120125DD
:1009C30048E20412012523E304120125B2E30412D1
:1009D3000125FDE304120125C4AA01120125D4AAAD
:1009E3000112012537AB011201257CAB0112012550
:1009F3002CAC0112012500AD0112012568AD0112D5
:100A0300012591AD01120125C1AD01120125D5AF1B
:100A130001120125B1B10112012591B30112012582
:100A2300C9B40112012542B7011201252EB80112E2
:100A3300012574B90112012581BA01120125C3BA36
:100A430001120125FBBA0112012515BB0112012573
:100A53007DBB0112012517C001120125B8C0011287
:100A630001250CC10112012533C10112012571C1F8
:100A73000112012590C101120125E4C101120125D2
:100A8300BDC20112012544C401120125CDC40112C6
:100A930001250080041201250A8004120125A68085
:100AA300041201256D81041201258C810412012594
:100AB300B28104120125F181041201252982041255
:100AC3000125528204120125CF8204120125E482FA
:100AD30004120125F9820412012521830412012540
:100AE3005B83041201257F830412012548840412C9
:100AF30001255E8404120125718404120125868474
:100B030004120125188504120125528504120125BA
:100B1300838504120125AF8504120125F385041290
:100B23000125638604120125B78604120125008777
:100B3300041201252A87041201254F870412012577
:100B4300BBC40412012585C50412012568C604121D
:100B53000125DEC60412012520C7041201254DC854
:100B6300041201254AD10212012573D10212012573
:100B73008CD102120125D1D202120125AFD3021268
:100B83000125CED3021201255BD4021201259ED486
:100B930002120125D6D50212012542D602120125E1
:100BA30038D802120125C6DA0212012559DB0212D6
:100BB30001252DDC02120125D0DC02120125BADD4C
:100BC3000212012526DF02120125BCDF02120125D4
:100BD30068F104120125D1F10412012525F2041252
:100BE30001254CF2041201257DF20412012524BCD7
:100BF3000412012591BC04120125DCBC0412012559
:100C0300D1BD04120125CDBE04120125B7BF0412C4
:100C13000125B3D303120125F5D303120125CFD444
:100C230003120125A8D503120125A3D6031201251A
:100C330082D703120125EED703120125D0D8031260
:100C430001253BD903120125A2D903120125A5D9F8
:100C530003120125D0D90312012541DA031201251C
:100C6300D4DA031201253DDB0312012552DB031203
:100C730001259ADB03120125B3DB0312012518DCDE
:100C8300031201251BDC0312012574DB0412012569
:100C9300B0DB04120125EEDB04120125B8DC0412DB
:100CA30001252BDD0412012566DD04120125A4DDD7
:100CB30004120125D4DD04120125FBDD04120125F4
:100CC30066DE04120125A8DE041201252557001251
:100CD30001257F59001201255C5C00120125375D57
:100CE30000120125825D00120125CD5D0012012550
:100CF300DF5D001201251F5E00120125545E001204
:100D03000125A05E00120125CF5E00120125F25ECF
:100D130000120125795F001201256560001201258B
:100D23000E6300120125F964001201253C650012CF
:100D330001259F6600120125E06600120125E26786
:100D430000120125BE6900120125736A00120125F4
:100D53000D6B001201255870001201259E700012C0
:100D63000125DC70001201250F73001201251C758B
:100D730000120125EC750012012527E40412012558
:100D8300C7E50412012554A7031201257FA7031207
:100D9300012566AE031201258AB00312012545B26F
:100DA30003120125A2B303120125443100120125C8
:100DB300DB310012012521320012012557330012C5
:100DC30001257C33001201251335001201258D35D1
:100DD30000120125D13500120125463600120125E6
:100DE300753700120125D53800120125D7390012B5
:100DF3000125403B00120125903B00120125FB3CDD
:100E030000120125653F0012012541400012012512
:100E13005A4000120125B74000120125D6400012A6
:100E23000125F54000120125F840001201257E42FC
:100E3300001201257343001201256F44001201259E
:100E4300564500120125894500120125F945001276
:100E530001256B4600120125E546001201252F47A7
:100E6300001201250A4800120125D4480012012569
:100E7300DB4900120125BA4A00120125454B001235
:100E83000125B34B00120125274C00120125504CBC
:100E9300001201250F4D001201251E5000120125DD
:100EA300675000120125AA50001201252D5100128E
:100EB3000125D151001201256252001201258752EA
:100EC30000120125D15200120125F9520012012509
:100ED3003E5300120125B953001201251354001289
:100EE3000125675500120125245600120125F756E6
:100EF30000120125BBEE021201250BEF02120125A0
:100F030017EF02120125F4EF0212012524F0021259
:100F130001255CF002120125DBF00212012513F119
:100F23000212012565F102120125A2F10212012527
:100F3300C7F302120125F3F502120125EEF702129F
:100F43000125C9F902120125F77F00120125109C22
:100F53000412012542A00412012592A104120125C5
:100F630069B2021201253BB90212012541B90212ED
:100F73000125F1BB0212012565A70412012511A861
:100F830004120125DFA80412012509A90412012571
:100F930057AB04120125368C01120125808C0112F6
:100FA3000125749B01120125F59C01120125ED9D7C
:100FB300011201254CA40112012547A501120125A7
:100FC30084A501120125A7A501120125E9A5011296
:100FD3000125F2A501120125FCA501120125E8A6B0
:100FE30001120125DCA70112012575A801120125B3
:100FF30034C501120125ACCF01120125B2CF011274
:101003000125BED6011201258AFC0212012588FDA5
:1010130002120125DEFD021201251CFE021201252A
:1010230079FE02120125F6FE02120125FFFE0212CD
:1010330001250BFF021201251EFF021201255AFF93
:101043000212012570FF02120125A0950412012549
:10105300AD9504120125C7950412012506960412C5
:101063000125449604120125A99604120125BE9672
:1010730004120125C99604120125D69604120125EE
:10108300ED9604120125FB96041201250A9704121A
:1010930001251F97041201253497041201253F9758
:1010A300041201254B9704120125589704120125B8
:1010B300679704120125729704120125979704126A
:1010C30001254098041201255098041201256598C2
:1010D300041201257A98041201259498041201251B
:1010E300AF9804120125CC9804120125D798041255
:1010F30001259399041201257F9A04120125A49ACC
:1011030004120125AE9A04120125C29A0412012584
:10111300E19A04120125429B04120125489B041203
:1011230001254E9B04120125549B04120125609B4B
:1011330004120125939B041201257CC90312012586
:10114300A8C9031201258CCA0312012526CD031257
:1011530001253CCE0312012559CF03120125FCCFF3
:1011630003120125A2D003120125058003120125D4
:10117300878003120125308103120125788203122F
:1011830001258684031201256C8503120125A1859F
:1011930003120125C385031201256C860312012561
:1011A3003C8803120125658803120125DD8803129B
:1011B30001250F89031201251C8903120125678963
:1011C300031201258B8903120125DC8B03120125F0
:1011D300E68C03120125428D0312012533E002122E
:1011E300012544E10212012528E20212012532E21F
:1011F300021201253CE2021201255EE202120125E0
:101203006AE2021201250EE4021201253BE40212F6
:10121300012551E502120125A6E502120125F5E695
:1012230002120125CAE70212012526E8021201254E
:1012330091E802120125C6E80212012509E902120A
:101243000125D3EB02120125EBEB021201257CEC05
:10125300021201258AEC02120125D7EC02120125A4
:10126300E5EC0212012551ED02120125CCED02122B
:10127300012523EE02120125C5B303120125E7B3AD
:1012830003120125F8B503120125B7B8031201258E
:10129300E1B9031201259FBA031201258BBB031287
:1012A30001250EE80412012533E804120125A9E8FB
:1012B3000412012577870412012580870412012572
:1012C300898704120125618804120125128A0412F8
:1012D3000125428A041201256D8A041201259D8A83
:1012E30004120125C88A04120125FC8A041201256F
:1012F300288B041201256B8B04120125968B041293
:101303000125DD8B04120125328C04120125748C16
:1013130004120125CE8C04120125F98C0412012537
:10132300488D04120125788D04120125A38D041222
:101333000125D18D04120125F48D04120125C5FA6E
:1013430004120125F1FA041201251EFB04120125E2
:1013530028FB0412012538FB04120125B3EC031208
:101363000125D6EC03120125E9EC031201253CED1E
:101373000312012589ED03120125CAED031201258C
:1013830010EE0312012543EE031201258AEE031228
:101393000125DDEE031201251AEF0312012540EFAB
:1013A3000312012562EF031201258DF003120125BB
:1013B300E1F00312012543F103120125B4F10312F5
:1013C3000125EFF1031201250DF203120125C4F2E9
:1013D300031201253FF303120125A7F3031201258D
:1013E30057F4031201253FDC0312012549DC0312E4
:1013F30001258ADC03120125D3DC031201250DDD4F
:101403000312012563DD0312012584DD0312012587
:1014130033E0031201253CE00312012590E003129F
:101423000125B9E003120125C3E00312012531E1CF
:1014330003120125C1E1031201251CE20312012558
:101443004AE203120125D2E20312012511E303123A
:10145300012546E30312012558E30312012584E322
:10146300031201258DE3031201254FE40312012525
:10147300A0F3041201251DE60412012553E604120C
:10148300012587E604120125D4E70412012542FB56
:101493000412012558FB0412012562FB04120125E5
:1014A3001FF80412012579C0041201258CC004120F
:1014B300012550C1041201258FC104120125ACC1BD
:1014C30004120125E5C10412012532C204120125CB
:1014D30064C2041201259BC204120125AEC4041286
:1014E3000125AAF80412012512ED0412012535ED98
:1014F3000412012564ED04120125FCED04120125FB
:1015030014EE0412012556EE04120125D5A104128E
:10151300012517A2041201259EA204120125F3A29C
:101523000412012538A304120125E7A3041201259F
:1015330042A40412012591A404120125EBA4041270
:101543000125F8A504120125F0A6041201252DA7F3
:1015530004120125BFFC03120125E4FC031201253B
:101563000EFD03120125BEF90412012579DB0112D8
:10157300012577DD0112012544DF01120125F1DF89
:101583000112012571E001120125F6E00112012586
:101593001FE10112012571E10112012557E6011234
:1015A3000125CEE601120125E5E7011201251FE819
:1015B3000112012560E801120125A7E901120125A5
:1015C300D6E9011201252CEA0112012575EA01125F
:1015D3000125E1EA0112012555EB0112012583EBF7
:1015E300011201259BEB01120125B4EC0112012527
:1015F300C4EC011201257DEE0112012594EE0112C6
:101603000125C6EE0112012563F001120125F7F051
:101613000112012586F50412012597F5041201250F
:10162300A0FF02120125DFFF02120125EDFF0112C7
:10163300012582F70412012592F704120125ADF763
:101643000412012515F8041201259EF20412012546
:1016530023F30412012587F3041201259FEE0412DC
:101663000125C8EE0412012533EF0412012584EF8E
:1016730004120125DFEF04120125A7C80412012576
:10168300CCC804120125E9C80412012506C90412B5
:1016930001252BC9041201254CC90412012576C961
:1016A3000412012533CA04120125B1CA041201250B
:1016B300D8CA04120125E2CA0412012507CC041278
:1016C300012533D4041201254AD404120125C4D4BC
:1016D30004120125A8D5041201257FD70412012580
:1016E30066D004120125F6D0041201257FD104121D
:1016F30001251BD204120125ACD2041201255CD3AF
:10170300041201256AD304120125EAD30412012528
:10171300FDD30412012513D4041201251DD4041290
:10172300012530D40412012537F604120125BCF635
:1017330004120125C7F604120125D7F60412012568
:101743007AEB04120125CCEB041201253FEC0412C1
:101753000125ACEC04120125F0DE041201251ADF89
:1017630004120125E9DF04120125C5E00412012555
:1017730056E1041201257DE40312012549E5031214
:1017830001258AE503120125C4E50312012522E69A
:101793000312012576E603120125D4E6031201257F
:1017A3006AE70312012572E803120125FCE903121B
:1017B30001259AEA0312012501EB0312012514EB1B
:1017C3000312012508EC0312012551EC0312012534
:1017D3008F8D03120125C19003120125529203122A
:1017E3000125A99203120125C692031201254693EE
:1017F30003120125C29403120125919503120125B9
:10180300FE9803120125E899031201252FA2021263
:10181300012555A2021201258AA202120125F6A270
:101823000212012579A3021201258BA302120125BD
:101833002DA4021201254FA60212012574A602123D
:1018430001259DA602120125CEA602120125D1A6CD
:101853000212012513A70212012522A70212012554
:101863002DA70212012586A7021201258DA70212B8
:10187300012543A8021201254DA80212012568A8DB
:10188300021201257DA802120125A8AA0212012530
:10189300DDAB02120125E3BE03120125E3BF0312F0
:1018A300012527C00312012553C10312012525C2B7
:1018B300031201254DC203120125B5C603120125EA
:1018C30005C7031201259EC703120125D4C80312BD
:1018D3000125DBF403120125C5F8031201254CF998
:1018E30003120125ABFA03120125D3FA03120125D2
:1018F3009DFB031201252DFC03120125A2AC04124A
:101903000125DBAC04120125F8AC0412012547AE16
:1019130004120125E7AE0412012511B004120125BA
:101923009AB104120125A3FF03120125E2F6041262
:1019330001250CF704120125C17F00120125D0FFF8
:1019430003120125ACFB04120125E09102120125CB
:10195300FE9602E066701008A3E066700A08A3E032
:1019630066700408A3E06622C008C3E096F5080881
:10197300A3E096420808A3E096420808A3E0964233
:1019830008A2D265D033E5087001D3D00822C3E79B
:10199300960809E7960809E7960809E79622C3E03F
:1019A3009608A3E09608A3E09608A3E09622C00851
:1019B300C3E096F50808A3E096420808A3E0964220
:1019C3000808A3E09645087001D3D0082208080848
:1019D300E630E71112228C1219E8080808C6448081
:1019E300C618181822181818E9799EC608CAC60816
:1019F300CBC608CCC6C370207996CACBCC701979F4
:101A03008ECBCC70137986CC700EF9802ACA33CA78
:101A1300CB33CBCC33CC331930E7F2CCCBCA3350F6
:101A2300147004EA30E00DE4CA3ACACB3BCBCC3C99
:101A3300CC500209C3E913C6CC182313C6CB18C66E
:101A4300CA18C6F922121A8820F01430E72B74FF43
:101A5300FCFBFA747F8022E4FCFBFA7480801AB4E6
:101A63008008BC00F2BB00EF800F50EBF9E4C39A8F
:101A7300FAE49BFBE49CFCE499C6CC18C6CB18C6DD
:101A8300CA18C6F922E4C9C608CAC608CBC6D333E6
:101A93000308CCC63392F0C3947F402E94184019A8
:101AA300C9B90704CACBCC225025C309CA33CACB50
:101AB30033CBCC33CC33D9F422F4600DC9CCC3136C
:101AC300CB13CBCA13CAD9F6CC22E4FCFBFA2214FB
:101AD300FCFBFA22E6C33318461846184622E7C32E
:101AE3003319471947194722181818E6084608708A
:101AF3000AE608C3337005E633F4220822191919DC
:101B0300E7094709700AE709C3337005E733F4228D
:101B13000922E6084608C3134608336002E633F495
:101B230022E7094709C3134709336002E733F42265
:101B3300121B156025121B246020121AD770030292
:101B43001AE1080808E76670101819E766700A18A2
:101B530019E76670041819E76622F422121B156050
:101B63001C121B246017121AD77007121AE1700196
:101B7300D322C0D0121AE17006D0D0B322C32233CD
:101B8300D0D0501430E0F6C3E7960809E796080969
:101B9300E7960809E796B32220E0D5E6970809E619
:101BA300970809E6970809E697B322121B15601BED
:101BB300121B246016121AD77007121AE1600CB3B5
:101BC30022C0D0121AE17005D0D022C32233D0D064
:101BD300501330E0EBC3E7960809E7960809E79648
:101BE3000809E7962220E0E4E6970809E697080942
:101BF300E6970809E6972200121B15604F121B2473
:101C03006012E7548066F6121AEB7011121AE17033
:101C13003B090909F4F618F618F618F622121B0008
:101C23007015121AD708080860EAE6447FF618769A
:101C33008018E4F618F622121AD76016121AE17009
:101C430012E4F608F608F608E65480F609090918BE
:101C5300181822EAC0E0EBC0E0ECC0E0EDC0E0E61B
:101C630087F0A4FBACF008E687F0A42CFCE435F085
:101C7300FA1809E687F0A42C4B60027401CA35F008
:101C8300FCE433FB09E687F0D2F7A42CCB35F0FC58
:101C93001908E687F0A42BCC35F0FBE433FD0819D3
:101CA300E687F0D2E7A42C4ACB35F0CD3400FC090B
:101CB300E687F0D2E7A42DCC35F0FDE433FA09181A
:101CC300E687F0D2F7A42CCD35F0CA3400FC08E641
:101CD30087F0D2E7D2F7A42ACC35F07A7E20E70B3F
:101CE3000ACB33CBCD33CDCC33CC33CB3350147081
:101CF30004ED30E00ED2F1E4CD3DCDCC3CCC3B50F5
:101D030005DA05C2F1EB547FC63308E63392F0FBE4
:101D1300E73309E733C39A502D2B70190C0D4C4D43
:101D230070151806E608C333700D20F10AA2F013EC
:101D3300F6E418800B4024E4F630F002768018F6BF
:101D430018F618F68024D33B14501074FFA2F01336
:101D5300F6187680E418F618F6800FA2F013F6183A
:101D6300E63303F618ECF618EDF6D0E0FDD0E0FC10
:101D7300D0E0FBD0E0FA22121B246046121B156050
:101D83003DE9687008F618F618F618F622748067AD
:101D9300F7121DAE090909748067F722121B15603B
:101DA3001D121B247005191919801A121AEB701FC2
:101DB300121B00C37003E66733191919400718187B
:101DC300182208080874FFF618F618F618F62212F7
:101DD3001B006017121AE1702192F0121AD77019C2
:101DE300501720F014080808090909E7F61819E73D
:101DF300F61819E7F61819E7F622121AD760E6E87B
:101E030069701F0808E62480F608E436F618547F44
:101E1300B47F0CE654806007F6E418F618F622182F
:101E23001822E9C6CC08C6CD08C6CE08C6CFC0E086
:101E3300E8C0E0EAC0E0EBC0E009E9F809E7FA0925
:101E4300E7FBE6F918E6F8C3EC98ED99EE9AEBC2D6
:101E5300E7F5F0EFC2E795F0500E600CEBCFFBEA2D
:101E6300CEFAE9CDF9E8CCF8EAA2E7D2E7FAEB3308
:101E7300FB13F5F0EEA2E7D2E7FEEF33FFC5F01355
:101E8300A2E730E601B313C5F0C3C0E0C0F07F00A2
:101E9300C39BFB605B9418600C401AD0E023F9D01D
:101EA300E0F8021F7D8AF0E9486003D2F0E4AFF066
:101EB300FAF9F8803BEB30E40D89F0EA6003D2F0E5
:101EC300E4AFF0F9CAF8EB30E30D88F0EF6002D22B
:101ED300F0AFF0E4CAC9F8EB54076014FBC3EA138C
:101EE300FAE913F9E813F8EF135002D2E0FFDBED40
:101EF300D0E0C0E030E739C3E49FFFF5F0EC98FC95
:101F030042F0ED99FD42F0EE9AFE42F0D0E0F9D0B6
:101F1300E0F8E5F0607AE923F9EE20E742D80280A1
:101F230067C3EF33FFEC33FCED33FDEE33FE80EAA2
:101F3300EC28FCED39FDEE3AFED0E023F9D0E0F8D1
:101F43004002801BC3EE13FEED13FDEC13FCEF13F5
:101F53005002D2E0FF08B800067F7F74FF802EEFA7
:101F63003350178CF020F00260100CBC000C0DBD38
:101F730000080EBE000408E860DFE933E813FFEE53
:101F83002313FE4F4D4C8008E95480FFE4FEFDFC13
:101F9300EE33EF33F47004FCFD7E80D0E0FBD0E041
:101FA300FAD0E0F8D0E0CFC618CEC618CDC618CC0C
:101FB300C6F922121B15700418181822121B24705C
:101FC3000D74FFF61819F61819F61819F622E754C6
:101FD3008066F6121AD7700F121AE170F014F60821
:101FE300F608F608F680D1121AE1700CF608F60826
:101FF300768008E6447F80EC121B03700C121AEE05
:1020030060BFE65480F6E480BB121AEE700519191E
:102013001980A5E869700C763F18768018F618F6D3
:10202300E8F922E6CDC0E018ECC0E0E633CD33CDCD
:10203300D313F6E719FCE7191933CC33C3947F4064
:102043000ECD9D502408E65480F6E418F6800FF474
:10205300043D14501408E6447FF6187680E418F61D
:1020630018F6D0E0FCD0E0FD22CCD313CCFD18E46D
:10207300C6CBC0E018E4C6CAC0E00808ED08C63302
:10208300E613F618E433C675F003C3CA97CA09CB3F
:1020930097CB199C40047D08802EBD000302215F6D
:1020A30016B6FF050606081618C3CA33CACB33CBC8
:1020B30033CA27CA09CB37CB193CC37D08803E18E6
:1020C3007D0820E75CC633C6CA33CACB33CB33DDC6
:1020D300F1D5F0EB30E77BCA97CA09CB974ACB1906
:1020E3009C406F4B7025E620E0218066187D08C375
:1020F300CA97CA09CB97CB199CD3C633C6CA33CA6E
:10210300CB33CB3350C9DDE7D5F0E1D3E4C636C6D4
:1021130008C636C608C636C608C636C61818188096
:1021230031C3CA97CA09CB97CB199CB34097C6331F
:10213300C6CA33CACB33CB33DD34D5F02EC6A2E0C7
:10214300C640C8CA27CA09CB37194A70BECB3CB4AC
:1021530080B90808E63308E633601F181818D0E082
:10216300FAD0E0FBD0E0FCD0E0FD22187D08CA27BE
:10217300CA09CB37CB193CD3808013F618E4B67F5A
:1021830011F618B6FF0EF618C60470D2080876804A
:1021930080CAF618F618F680C5080808EAC0E0EB0E
:1021A300C0E086F0E7A4FA180986F0E7A42AFA1833
:1021B3000986F0E7A42AFA180986F0E7A42AFA198F
:1021C30086F0E7A4FBE5F02AFA190886F0E7A42BCA
:1021D300FBE5F03AFA190886F0E7A42BFBE5F03AA1
:1021E300FA18180986F0E7A4C5F02BFBE43AFA19AC
:1021F30008E7C5F0C6A426F6E5F03BFBE43AFA1877
:1022030086F0E7A4F6E5F00826F6E43B08F6E43AA0
:1022130008F6D0E0FBD0E0FA22E4CFC0E0E4CEC081
:10222300E0E4CDC0E0E4CCC0E075F020C3E633F6D3
:1022330008E633F608E633F608E633F6181818EC22
:1022430033FCED33FDEE33FEEF33FFC3EC9709EDC3
:102253009709EE9709EF97191919400FFFEC97FCAF
:1022630009ED97FD09EE97FE191906D5F0BEECF7B7
:1022730009EDF709EEF709EFF7191919D0E0FCD0CA
:10228300E0FDD0E0FED0E0FF22181818E4C396F674
:1022930008E496F608E496F608E496F62260160833
:1022A3000808C6C313C618C613C618C613C618C66D
:1022B30013C6D5E0EA227009080808226016181828
:1022C30018C6C333C608C633C608C633C608C633E2
:1022D300C6D5E0EA22E627F60809E637F60809E656
:1022E30037F60809E637F622E026F608A3E036F6C5
:1022F30008A3E036F608A3E036F622E026F008A3AA
:10230300E036F008A3E036F008A3E036F022C3E697
:1023130097F60809E697F60809E697F60809E69797
:10232300F622C3E0C696F608A3E0C696F608A3E035
:10233300C696F608A3E0C696F622C3E096F008A375
:10234300E096F008A3E096F008A3E096F022E657A3
:10235300F60809E657F60809E657F60809E657F6B8
:1023630022E056F608A3E056F608A3E056F608A3C3
:10237300E056F622E056F008A3E056F008A3E05634
:10238300F008A3E056F022E066F608A3E066F6083C
:10239300A3E066F608A3E066F622E0F608A3E0F6FB
:1023A30008A3E0F608A3E0F622E6F008A3E6F008A7
:1023B300A3E6F008A3E6F022E0FAA3E0FBA3E0FC27
:1023C300A3E0FD22EAF0A3EBF0A3ECF0A3EDF022EF
:1023D300CAC0E0E6F0A308DAFAD0E0FA22CAC0E005
:1023E300E0A3C582CCC582C583CDC583F0A3C582D6
:1023F300CCC582C583CDC583DAE6D0E0CA22C3E467
:1024030098F8E499F91224428026C3E49AFAE49BEB
:10241300FBE920E7E9122442E498F8E499F922C39E
:10242300E498F8E499F9122442E498F8E499F9C39A
:10243300E49AFAE49BFB22EB20E7CFE920E7E0B93B
:102443000010BB0008E88AF084F8AAF022E4FBC875
:10245300FA22EB70227B10C833C8C933C933500743
:10246300C39AC3DBF280069A50012ADBEAC833F42D
:10247300C8C933F4C9FA2275F008E4C833C8C933AC
:10248300C933C99AC99B5004C92AC93BD5F0ECFB8F
:10249300C833F4C8E4C9FA22600D08C6A2E713C61C
:1024A30018C613C6D5E0F322600C08C6C313C618BA
:1024B300C613C6D5E0F422700422600D18C6C333D8
:1024C300C608C633C6D5E0F41822251810AF08F5A0
:1024D30018400215198008F51840021519D2AF22C9
:1024E300C0D0251810AF08F518500205198008F55B
:1024F3001850020519D2AFD0D0222518F58210AF9B
:1025030008F518400215198008F51840021519D26C
:10251300AF851983222518F582E43519F58322E462
:10252300732518C582C0E0E51934FFC583C0E0E513
:1025330018C3958224F810AF088583198582188003
:1025430008858319858218D2AFCEF0A3E520F0A3C6
:102553007808E608F0A3DEFAEFF0A3E58124FAF8A1
:10256300E608F0A3E608F0A3E608F0A30808E608E7
:10257300F0A3E608F0A315811581D0E0FED0E0F8C2
:10258300158115811581E8C0E0EEC0E0222518C54C
:1025930082C0E0E51934FFC583C0E0E518C3958226
:1025A30024F910AF0885831985821880088583195B
:1025B300858218D2AFCEF0A3E520F0A37808E60811
:1025C300F0A3DEFAEFF0A3E58124FBF8E608F0A31D
:1025D300E608F0A30808E608F0A3E608F0A31581CF
:1025E3001581D0E0FED0E0F815811581E8C0E0EE5A
:1025F300C0E022851983851882E0A3FEE0A3F520BD
:102603007808E0A3F608DFFAE0A3FFE0A3C0E0E068
:10261300A3C0E0E0A3C0E0E0A3C0E0E0A3C0E010FB
:10262300AF088582188583198008858218858319E8
:10263300D2AFD083D082020122851983851882E02C
:10264300A3FEE0A3F5207808E0A3F608DFFAE0A3F1
:10265300FFE0A3C0E0E0A3C0E0E0A3C0E0E0A3C0CC
:10266300E010AF0885821885831980088582188554
:102673008319D2AFD083D08222C0D02518C582C09F
:10268300E0E51934FFC583C0E0E518C3958224F360
:1026930010AF088583198582188008858319858280
:1026A30018D2AFC8F0A3E9F0A3EAF0A3EBF0A37943
:1026B30008E709F0A3D8FAECF0A3EDF0A3EEF0A33A
:1026C300EFF0A3D0E0F0A3D0E0F0A3D0E0F0A3E5D7
:1026D30020F0A3E5F0F0A322851983851882E0C0DA
:1026E300E0A3E0F9A3E0FAA3E0FBA37808E0F6088F
:1026F300A3DFFAE0FCA3E0FDA3E0FEA3E0FFA3E079
:10270300C0E0A3E0C0E0A3E0F5D0A3E0F520A3E0A0
:10271300A3F5F010AF088583198582188008858397
:1027230019858218D2AFD082D083D0E0F8D0E032BE
:1027330074048006740280027401C0E0F40412245D
:10274300FDD0E01223D3227404800474028000CCF1
:10275300C0E0EDC0E0E518C39CCCAD1950011D10DD
:10276300AF068C188D1980068C188D19D2AF1223E1
:10277300E0D0E0FDD0E0FC22D083D082E9C0E0E4E9
:1027830093A3C386F0C5F095F0F908E493A386F00C
:10279300C5F095F0700BE493A3C3994005E9048059
:1027A30002A3E475F002A42582F582E5F03583F5F2
:1027B30083D0E0F9E493A3C0E0E493C0E022D083A4
:1027C300D082ECC0E0EDC0E0E493A3FCE493A3FD6E
:1027D300ED4C600D12280DEC24FFFCED34FFFD8061
:1027E300EFE493A3FCE493A3FDED4C600D12284C9E
:1027F300EC24FFFCED34FFFD80EFD0E0FDD0E0FCE6
:10280300E493A3C0E0E493C0E022C0E0C3E4939662
:10281300087401939618400FE493667008087401D6
:1028230093661870007019A3A3C3E4939608740108
:10283300939618A3A3400DD0E0D0E0D0E00227FD8B
:10284300A3A3A3A3A3A3D0E022C0E0C0F088F0E435
:10285300936670080874019366187000A8F0A3A328
:10286300700BD0F0D0E0D0E0D0E00227FDA3A3D0DE
:04287300F0D0E0229F
:1028780074F5122590EAFEEBFFEE2434F8EF3400ED
:10288800F988088909EE2435F582EF3400F583E0EC
:10289800F8EE2437F582EF3400F583E0F50AEC858D
:1028A8000AF0A4FCAAF0850AF0EDA42AFDE82CF8A9
:1028B800E43DF97A257B00122442EA8508828509DD
:1028C80083F05407F87401B800028004C333D8FCBD
:1028D800C0E0E0131313541FF8EE28F8EF3400F9A2
:1028E800E8245DF582E93400F583D0E0F8E058602B
:1028F80008EE2434F582EF801EEE2436F582EF349C
:1029080000F583E0F5F0EA84A8F0EE28F8EF34004B
:10291800F9E82438F582E93400F583E0F97F040208
:10292800263C74F5122590EAFEEBFFEE2434F5827E
:10293800EF3400F583E0C0E0EE2435F582EF340093
:10294800F583D0E0F08E828F83A3A3A3A3A3A3A3D0
:10295800C082C0838E828F83A3A3A3A3A3E0F8A31E
:10296800E0F9D083D082E0C398F508A3E099F5098F
:10297800EE2480F582EF3400F583E064017069EE9F
:102988002481F582EF3400F583E0F8A3E0F98E8224
:102998008F83A3A3A3A3A3A3A3E0FCA3E0FD8E823C
:1029A8008F83A3A3A3A3A3E0FAA3E0FBC3EA9CEB52
:1029B8009D5027C3EC98ED99402EC3EA98EB9950A7
:1029C800277CF07D07EEFAEFFB120E8EEE2480F5E1
:1029D80082EF3400F583E4F0800EC3EA98EB994067
:1029E800E0C3EC98ED9950D9EE2434F8EF3400F9AF
:1029F800E8FCE9FDEE2435F582EF3400F583E0F8D4
:102A0800EE2437F582EF3400F583E0F50AE5088512
:102A18000AF0A4F508AAF0850AF0E509A42AF50940
:102A2800E82508F8E43509F97A257B00122442EAFA
:102A38008C828D83F05407F87401B800028004C3B7
:102A480033D8FCC0E0E0131313541FF8EE28F8EF56
:102A58003400F9E8245DF582E93400F583D0E0F824
:102A6800E0586008EE2434F582EF801EEE2436F537
:102A780082EF3400F583E0F5F0EA84A8F0EE28F858
:102A8800EF3400F9E82438F582E93400F583E0F9F9
:102A9800123040022925C082C08385188285198397
:102AA800E0F8A3E0F9C3EA9CEB9D5012C3EC98ED63
:102AB800994019C3EA98EB99501279018010C3EA3A
:102AC80098EB9940F5C3EC98ED9950EE7900D083D6
:102AD800D08222EAC39CFAEB9DFB220085218785E0
:102AE80022C622C0E0C0D0E8C0E0E9C0E0EAC0E009
:102AF800EBC0E0ECC0E0EDC0E0C008C009C00AC00F
:102B08000BC082C083C0F0759B00906182E0A2E692
:102B18004003022BC9E591A2E64003022BC9759137
:102B2800BF9004A7E06405700812102612103280C6
:102B38000312102C752100121098E99004A8F0795E
:102B48000012107A120DB67A017B009004A6E0F903
:102B5800121446907803E064426003022C12900835
:102B68007CE014F06003022C12C2AF122B760078BE
:102B78002AD0E0F618D0E0F6E59F5407F9700590E2
:102B88008B8C8003908B90780812239DE9C4C0E059
:102B98007829E65508F50808E65509F509740B780B
:102BA800081224ABD0E02508F8906270E0A2E74054
:102BB800F8E8C333906272F0906270E0D2E0F0807F
:102BC80049E0A2E55024E591A2E5501E7591DF90F9
:102BD80004A7E0640D70139004C9E004F064287041
:102BE80002E4F07A00E0F912112E906181E0A2E38C
:102BF8005009E5E9A2E3500375E9F7A3E0A2E7501D
:102C080009E591A2E7500375917FD0F0D083D08277
:102C1800D00BD00AD009D008D0E0FDD0E0FCD0E03D
:102C2800FBD0E0FAD0E0F9D0E0F8D0D0D0E032C064
:102C3800E0C0D0C082C083906183E0A2E05009E583
:102C4800BFA2E0500375BFFEE0A2E15009E5BFA2B4
:102C5800E1500375BFFDE0A2E25009E5BFA2E250D2
:102C68000375BFFBE0A2E35009E5BFA2E35003757B
:102C7800BFF7E0A2E45009E5BFA2E4500375BFEF37
:102C8800E0A2E55009E5BFA2E5500375BFDFE0A269
:102C9800E65009E5BFA2E6500375BFBFD083D082D6
:102CA8008088C0E0C0D0E8C0E0E9C0E0EAC0E0EB5E
:102CB800C0E0ECC0E0EDC0E0C0F0E5A7A2E6500F30
:102CC800E5A1A2E6500953A7BF75A1BF122D0FE5D4
:102CD800A7A2E5500CE5A1A2E5500653A7DF75A110
:102CE800DFE5A7A2E15009E5A1A2E1500375A1FD26
:102CF800E5A7A2E2500CE5A1A2E2500653A7FB7596
:102D0800A1FBD0F0022C2074F812259075210190B7
:102D180004A7E064067015120FC08A828B83A3A3F0
:102D2800A3A3A3A3E0FAA3E0FB121014A2AFE43319
:102D3800FED2AF9004ADE0640170187A207B009059
:102D480004A6E0F91214CA7A207B009004A6E0F9E0
:102D580012144C906182E0D2E6F090087BE060218A
:102D680085C62280169004ACE064017008E5C6545C
:102D7800F84405F5C653BEFC122AE47401652160C7
:102D8800E4EEA2E092AF7F0102263C008E238F245E
:102D9800858228858327851882851983E0CEA3E05C
:102DA800CF852882852783EBC9EAC8EDCBECCA75A5
:102DB800F010C3E833C8E933C9EA33CAEB33CBC3ED
:102DC800EA9EF526EB9FF525B35004AB25AA26EC21
:102DD80033CCED33CDD5F0DAAE23AF242274F11223
:102DE80025908A088B098C0A8D0B740F1225187888
:102DF8000C12239D908BA87808122364908BA878D6
:102E08000C1223647808790C1219915015780879F6
:102E18000C122311908B3878081219B140157901DA
:102E28008013780C7908122311908B38780C1219BA
:102E3800B140EB79007F0802263C74ED1225908A98
:102E4800088B098C0A8D0B7413122518780C122321
:102E58009D908BA87808122364908BA8780C122375
:102E680064780C790812199140117808790C1223AA
:102E780011AA08AB09AC0AAD0B80227510007511B8
:102E8800007512007513017810790C12231178104F
:102E980079081222D8AA10AB11AC12AD137F0C021C
:102EA800263C908BA8780812239D8A828B83780809
:102EB8001223777F0402263C74F51225908C828DAC
:102EC80083780812239D8A828B83780812233DEA2F
:102ED8002404F8EB3400F98C828D83A3A3A3A3E028
:102EE800FCA3E0FD88828983C3E09CF0A3E09DF009
:102EF80088828983C3E09420A3E0944E4022908B7B
:102F0800B4780812239D8A828B8378081222FE8A5D
:102F1800828B83A3A3A3A3E02420F0A3E0344EF084
:102F2800808074F5122590E9FE900807E0FAA3E086
:102F3800FBEEC333F8E433F9745528F58274863907
:102F4800F583E02AF508A3E03BF50978081227374E
:102F5800908BBC1223BB122D9474021224E38A08AE
:102F68008B098C0A8D0B741078081222A0AA08AB62
:102F7800097F0402263C74F11225908A0C8B0D8C73
:102F88000E8D0F740F122518E0FAA3E0FB741112CE
:102F98002518E0F508A3E0F5097413122518E0FEDA
:102FA800A3E0FF7808122737EA2401F508EB34007C
:102FB800F509E4F50AF50B780C790812219C908B39
:102FC80048780812239D780C790812219CAA0CAB2A
:102FD8000DAC0EAD0F122D9474021224E38B09EA86
:102FE800450960047A0180027A00EC2AFCED34007D
:102FF800FDECF8EDF97A717B021224428808890900
:10300800E4F50AF50B8E828F8378081223ACECF86E
:10301800EDF97A717B021224428A088B09740578CB
:10302800081224BA8E828F83A3A3A3A3E508F0A372
:10303800E509F07F0802263CC082C083E990600061
:10304800F0D083D08222C0E074F212267CA2AFE4D2
:1030580033FED2AFC2C0E5D1A2E4500653D1EF127D
:103068001722EEA2E092AF7F010226DBC0E074F2E5
:1030780012267CA2AFE433FED2AFE589A2E1500369
:10308800121674758900C2C5EEA2E092AF7F0102E4
:1030980026DBC0E074F212267CA2AFE433FED2AF86
:1030A800E58BA2E05003121674758B00C2E880D835
:1030B800C0E0C0D0E8C0E0E5A8D2AFC2C7A2E7929E
:1030C800AFD0E0F8D0D0D0E032C0E0C0D0E8C0E067
:1030D800E9C0E0C008C009C082C083A2AFE433F9E8
:1030E800D2AF90113FE0F8A3E0687008539AFBA3B1
:1030F80074018026C2E990113FE0F50874012508A3
:10310800F074BF2508F58274103400F583E0F5C12A
:1031180090113FE0C394804002E4F0E9A2E092AF4E
:10312800D083D082D009D008D0E0F9D0E0F8D0D050
:03313800D0E032B2
:10313C00FFFFFFFFFFFFFFFFC082C0839061907411
:10314C0004F0A37448F0A37402F09061807440F012
:10315C009061BC7403F09061877419F0906265748F
:10316C001BF090619C740DF090619A7433F0A37411
:10317C0055F09061A0743AF0900879E06401700900
:10318C00C2919004AB746780059004AB7461F090AD
:10319C003142E493906186F090313CE493F46027E3
:1031AC00E493540FF8906185E0686012E5C6548092
:1031BC004449F5C6E59E547F644970F8E8F053C65F
:1031CC0080E59E547F70FA7905121110023B39C0CC
:1031DC0082C083E5A8F853A87E906181E4F0A3F047
:1031EC00A3F0C2BA539AFEC289759B00C2C275E99C
:1031FC000075910075BF0075A91175B905906181B5
:10320C00F0A374C0F0A3E4F0D2BA439A01748058CE
:10321C0042A8023B39C082C08374F81224CD9004BA
:10322C00A9E0F8A3E0F9E849700302334F9004A930
:10323C00E0544060237908851882851983AA82ABF3
:10324C0083120F00851882851983AA82AB83120B17
:10325C00289004A9E054BFF0E054806010790C7AF7
:10326C009D7B08120F009004A9E0547FF0E0A2E0CF
:10327C00503190619A7433F0A37455F09061A0743E
:10328C003AF0900879E064017009C2919004AB7433
:10329C006780059004AB7461F0120B2E9004A9E0CA
:1032AC0054FEF0E05402603190619A743FF0A374C4
:1032BC005AF09061A0747FF0900879E06401700975
:1032CC00D2919004AB747180059004AB746AF012C7
:1032DC000B2E9004A9E054FDF0E0540460139031DF
:1032EC0040E493906186F0120B349004A9E054FBF7
:1032FC00F0E054086013903141E493906186F01231
:10330C000B349004A9E054F7F0E0541060139031A2
:10331C0042E493906186F0120B349004A9E054EFD0
:10332C00F0E05420600A120B349004A9E054DFF052
:10333C00A3E05401600D120DC8120B3A9004AAE0E0
:10334C0054FEF074081224E3023B39C082C083E9B6
:10335C00600814600A14600C80139031408008904F
:10336C0031418003903142E493906186F0023B3905
:10337C0074EC12252474F41224CD851882851983DB
:10338C00AC82AD8375838B75822C74041223E09010
:10339C00314093F46003023509907808E0C394023D
:1033AC0050030234E97404122518AC82AD83758382
:1033BC008A75828874081223E085188285198385A2
:1033CC0082128583137404122518AC82AD83750E9A
:1033DC00FF750FFF7FFF7E00750C48750D7880150B
:1033EC0074086E700302347C74096E700302347CB2
:1033FC00740A6E607B850C82850D83780812239D80
:10340C008C828D83A909E50AC9F88810741878088C
:10341C001222A0E5104508F8C3E098A3E099850CAA
:10342C0082850D83780812239D40188C828D8374BD
:10343C001878081222A0E5104508F8E0C398F8A304
:10344C00E0801C741878081222A0E5104508FAE9EF
:10345C00FB8C828D83E0F8A3E0F9EAC398F8EB9932
:10346C00F9C3E8950EE9950F5006880E890FEEFF0B
:10347C000EE50C2404F50CE50D3400F50DEEC394AB
:10348C001350030233EC74FF650E700474FF650F68
:10349C0060238F08740278081224BA74482508F542
:1034AC008274783509F583780812239D85128285FC
:1034BC001383E508F0EC24020C0CED3400FD8512AE
:1034CC0082851383A3858212858313740C122518AD
:1034DC00E5826C7003E5836D60030233DA750801D5
:1034EC0075090078081227377402122518AC82ADC2
:1034FC00837A507B0C12165074021224E3740C1253
:10350C0024E37F0C0225F6C082C0839061AE746800
:10351C00F0A3746AF090624574FBF0A304F053F4CA
:10352C00FD43FE029008797401F09061A0E0643ACA
:10353C0090619A70237433F0A37455F09061A07469
:10354C003AF0740164017009C2919004AB74678005
:10355C00289004AB74618021743FF0A3745AF090EE
:10356C0061A0747FF0740164017009D2919004AB76
:10357C00747180059004AB746A0238D17F04022503
:10358C00F6C082C083900857E06401701590085D06
:10359C00E064016009E0700AA3E064017004790C36
:1035AC00802090086EE064017008900874E064015B
:1035BC0060EC900801E064017006900806E070DE93
:1035CC007900023B39C082C08375E1F1900804E0B8
:1035DC0060551460081460591460518059120DDA4A
:1035EC009007FAE0F97AFB7B0712105C908B78124B
:1035FC0023BB1210AA908BA01223BB121068900848
:10360C0005E0F912107479011211049007F8E02406
:10361C0016F8A3E03400F988828983740AF0A37445
:10362C000EF07900023B39120DE080B4120DE680E9
:10363C00AF120DEC80AA791280EA74F4122524756D
:10364C00D90D9007E9E0A2E0E4331313F89007FAE0
:10365C00E0C4333354C0484401F5D978F87907886D
:10366C00828983A3A3A3E0F5D988828983A3A88246
:10367C00A983E864FE7003E9640770E378E97907CD
:10368C0088828983A3E0F5D988828983A3A882A93B
:10369C0083E864EF7003E9640770E575E1959007C2
:1036AC00E9E0F97AEA7B0712106290144F7486F005
:1036BC00A3740DF0A37448F0A3740FF0A37448F036
:1036CC00A3740FF0A37448F0A3740FF0A3748CF0E0
:1036DC00A3740DF0A37448F0A3740FF0A374A4F0BA
:1036EC00A3740DF090145D7448F0A3740FF0A374E0
:1036FC0048F0A3740FF0A37448F0A3740FF0A374F4
:10370C0048F0A3740FF0A37448F0A3740FF0A374E3
:10371C0048F0A3740FF09007F8E0F8A3E0F5838865
:10372C0082A3A3780812239D908B6478081222EB55
:10373C00908BA878081223649007F8E0240EF8A365
:10374C00E03400F98882898378081223AC9007F85A
:10375C00E02414F8A3E03400F9888289837413F010
:10376C009004A77402F0023588C082C08390080AC6
:10377C00E02407F5D99007FAE0C4333354C0F5D9E7
:10378C0078F8790788828983A3A3A3E0F5D9888286
:10379C008983A3A882A983E864FE7003E964077097
:1037AC00E390080AE0601F78F87907FAE82413F52B
:1037BC0082E93400F583E0F5D988828983A3A88255
:1037CC00A9831AEA70E690082AE02407F5D9900735
:1037DC00FAE0C4333354C04404F5D978F879078837
:1037EC00828983A3A3A3E0F5D988828983A3A882C5
:1037FC00A983E864FE7003E9640770E390082AE08B
:10380C00601F78F87907FAE82433F582E93400F57B
:10381C0083E0F5D988828983A3A882A9831AEA70E8
:10382C00E675E19590144F7492F0A3740DF0A374A7
:10383C0048F0A3740FF0A37448F0A3740FF0A374B2
:10384C0048F0A3740FF0A3748CF0A3740DF0A37460
:10385C0048F0A3740FF0A374A4F0A3740DF09014AB
:10386C005D7448F0A3740FF0A37448F0A3740FF0C8
:10387C00A37448F0A3740FF0A37448F0A3740FF072
:10388C00A37448F0A3740FF0A37448F0A3740FF062
:10389C00908BB41223BB9007F8E0240EF8A3E0340D
:1038AC0000F9888289831223C79007F8E02414F862
:1038BC00A3E03400F9888289837412F09004A77411
:1038CC00018002F0A3F0023B39C082C08390080A49
:1038DC00E02407F5D99007FAE0C4333354C044020E
:1038EC00F5D978F8790788828983A3A3A3E0F5D961
:1038FC0088828983A3A882A983E864FE7003E964A3
:10390C000770E390080AE0601F78F87907FAE8245A
:10391C0013F582E93400F583E0F5D988828983A315
:10392C00A882A9831AEA70E675E19590144F749EEB
:10393C00F0A3740DF0A3749EF0A3740DF0A3749E09
:10394C00F0A3740DF0A3749EF0A3740DF0A3749EF9
:10395C00F0A3740DF0A3749EF0A3740DF0A374A4E3
:10396C00F0A3740DF090145D7448F0A3740FF0A3E1
:10397C007448F0A3740FF0A37448F0A3740FF0A371
:10398C007448F0A3740FF0A37448F0A3740FF0A361
:10399C007448F0A3740FF0908BB41223BB9007F80B
:1039AC00E0240EF8A3E03400F9888289831223C73F
:1039BC009007F8E02414F8A3E03400F98882898396
:1039CC007414F09004A774040238D1C082C08390A0
:1039DC00080AE02407F5D99007FAE0C4333354C041
:1039EC004406F5D978F8790788828983A3A3A3E0E4
:1039FC00F5D988828983A3A882A983E864FE700321
:103A0C00E9640770E390080AE0601F78F87907FA18
:103A1C00E82413F582E93400F583E0F5D98882892E
:103A2C0083A3A882A9831AEA70E690082AE02407E7
:103A3C00F5D99007FAE0C4333354C04404F5D9786F
:103A4C00F8790788828983A3A3A3E0F5D9888289B2
:103A5C0083A3A882A983E864FE7003E9640770E37A
:103A6C0090082AE0601F78F87907FAE82433F58289
:103A7C00E93400F583E0F5D988828983A3A882A96B
:103A8C00831AEA70E675E19590144F7498F0A3745C
:103A9C000DF0A37448F0A3740FF0A37448F0A37452
:103AAC000FF0A37448F0A3740FF0A37448F0A37440
:103ABC000FF0A37448F0A3740FF0A374A4F0A374D4
:103ACC000DF090145D7448F0A3740FF0A37448F0DB
:103ADC00A3740FF0A37448F0A3740FF0A37448F010
:103AEC00A3740FF0A37448F0A3740FF0A37448F000
:103AFC00A3740FF0908BB41223BB9007F8E0240E44
:103B0C00F8A3E03400F9888289831223C79007F860
:103B1C00E02414F8A3E03400F9888289837415F04A
:103B2C009004A774030238D1E0F9123040D083D04E
:103B3C0082020122C082C0839008617425F0900833
:103B4C005F7401F0A3E4F07A01FB12108690084D2B
:103B5C00E02416F8A3E03400F9888289837416F007
:103B6C00A3740EF090085EE06401701690085DE09E
:103B7C00701079011210EC1210B61210E6790012C6
:103B8C0010F880A9C082C08374FA1224CD90085614
:103B9C00E064017008120DF2900856E4F075E1F142
:103BAC0090084DE02415F8A3E03400F9888289834D
:103BBC007401F0900858E064017076908AECC08231
:103BCC00851882851983AC82AD8375838AD0827403
:103BDC00061223E075D90D90084FE0C4333354C05E
:103BEC004403F5D9784D790888828983A3A3A3E08F
:103BFC00F5D988828983A3A882A983E864537003CA
:103C0C00E9640870E3851882851983A882A98388E2
:103C1C00828983E0F5D9A3A882A98374061225189A
:103C2C00E582687003E5836970E575E1957901803B
:103C3C0002790012108C90144F7478F0A3740FF06A
:103C4C00A3747EF0A3740FF0A37478F0A3740FF038
:103C5C00A37478F0A3740FF0A37448F0A3740FF05E
:103C6C00A37448F0A3740FF0A37484F0A3740FF042
:103C7C0090145D7448F0A3740FF0A37448F0A3740F
:103C8C000FF0A37448F0A3740FF0A37448F0A3745E
:103C9C000FF0A37448F0A3740FF0A37448F0A3744E
:103CAC000FF090084FE0F97A507B0812105C9008E6
:103CBC0061E0F91230407901121092908B78122346
:103CCC00BB1210AA908BA01223BB121068790012A1
:103CDC00110490084DE02414F8A3E03400F9888214
:103CEC0089837416F09004A77405F00402335174A0
:103CFC00F71225248908A808E875F006A4C8AAF0CC
:103D0C002AF974D728FE740439FF900866E0F97A12
:103D1C00677B0812105C900874E0701A790012101E
:103D2C00CE9007E9E0700B79007AEA7B07121062FB
:103D3C008009790180F379011210CE75E1F175D902
:103D4C0023900866E0C4333354C04405F5D9786435
:103D5C00790888828983A3A3A3E0F5D98882898313
:103D6C00A3A882A983E8646A7003E9640870E37508
:103D7C00D90075D90075D90075D90075D90075D9D8
:103D8C0000EEF8EFF9E82404FAE93400FBE8242209
:103D9C00F582E93400F583E0F5D988828983A3A8FC
:103DAC0082A983EA687002EB6970E2EEF8EFF9E839
:103DBC0024031AE93400FBE82426F582E93400F5E3
:103DCC0083E0F5D988828983A3A882A983EA6870E5
:103DDC0002EB6970E2EE242BF582EF3400F583E000
:103DEC00F5D9EEF8EFF9E824021AE93400FBE824DF
:103DFC002CF582E93400F583E0F5D988828983A318
:103E0C00A882A983EA687002EB6970E2EEF8EFF918
:103E1C00E8242EF582E93400F583E0F5D98882890F
:103E2C0083A3A882A983EA687002EB6970E2EEF8BA
:103E3C00EFF9E82430F582E93400F583E0F5D98810
:103E4C00828983A3A882A983EA687002EB6970E275
:103E5C00EEF8EFF9E82432F582E93400F583E0F569
:103E6C00D988828983A3A882A983EA687002EB6946
:103E7C0070E2EEF8EFF9E824050A0A0AE93400FBCF
:103E8C00E8245DF582E93400F583E0F5D988828970
:103E9C0083A3A882A983EA687002EB6970E2EE241E
:103EAC0037F582EF3400F583E0541FF8EE242AF541
:103EBC0082EF3400F583E0C43354E048F5D975E162
:103ECC009590144F744EF0A3740FF0A37454F0A398
:103EDC00740FF0A37448F0A3740FF0A37448F0A30C
:103EEC00740FF0A37448F0A3740FF0A37448F0A3FC
:103EFC00740FF0A3745AF0A3740FF090145D74480F
:103F0C00F0A3740FF0A37448F0A3740FF0A37448DB
:103F1C00F0A3740FF0A37448F0A3740FF0A37448CB
:103F2C00F0A3740FF0A37448F0A3740FF09008730F
:103F3C00E0F9123040908B781223BB1210AA908BB0
:103F4C00A01223BB12106890600DE4F079011211DD
:103F5C00049004A7740602455074EC1225249008B2
:103F6C0064E0F8A3E0F5838882A3A3781012239D64
:103F7C00900875E0FAF875F006A4C8ACF02CF9744A
:103F8C000528F582740539F583E0FEA3E0FFEEC346
:103F9C0033FEEF33FF8E0CF50D750E00750F00859B
:103FAC00100885110985120A85130B908B68780807
:103FBC001222EB7808122733851008851109851217
:103FCC000A85130B7808790C1222D87810790C1208
:103FDC00221CE4F50EF50F7808790C1223118A0CCB
:103FEC00750D007403780C1224BA7808790C12221F
:103FFC00D8908BA87808122364AA08AB09AC0AAD38
:10400C000B122E4274041224E38A088B09A808A907
:10401C0009C3EE98EF995006E82EF8E93FF9E890BD
:10402C00600EF0E9A3F0EEA3F0EFA3F090600D7436
:10403C00C1F002350EC082C0839007F8E0F8A3E00F
:10404C00F5838882A3A3A3A3A3A3E40238CF74F7B8
:10405C001225249004D5E0F875F006A4C8AAF02A1D
:10406C00F974D728F8740439F9E82405FAE934000E
:10407C00FB8A828B83E0FCA3E0FD88828983A3A367
:10408C00A3A3A3A3A3A3A3ECF0A3EDF0888289833D
:10409C00A3A3A3A3A3A3A3E024FFF8A3E034FFF9F5
:1040AC008A828B83E8F0A3E9024550C082C08390DA
:1040BC00084DE0F8A3E0F5838882A3A3A3A3A3A3F0
:1040CC00E4F0A3F0900861023B34C082C0839008F6
:1040DC0064E0F8A3E0F5838882A3A3A3A3A3A3E4DD
:1040EC00F0A3F0900873023B3402012274F61225FF
:1040FC00249061D0E0F87480C398FCEA2483F582A4
:10410C00EB3400F583E06004780480027800E82446
:10411C000EF8ECC39850030242797E0C90087DE4B3
:10412C00F0EA2477F582EB3400F583E090087EF01A
:10413C00EA2478FCEB3400FD787F79087F028C82CE
:10414C008D83E088828983F08C828D83A3AC82ADD1
:10415C008388828983A3A882A9831FEF70E0EA2455
:10416C007AFCEB3400FD7F028C828D83E08882899F
:10417C0083F08C828D83A3AC82AD8388828983A3E8
:10418C00A882A9831FEF70E0EA247CFCEB3400FDCD
:10419C007F028C828D83E088828983F08C828D8370
:1041AC00A3AC82AD8388828983A3A882A9831FEFE5
:1041BC0070E0EA247EFCEB3400FD7F028C828D8360
:1041CC00E088828983F08C828D83A3AC82AD838856
:1041DC00828983A3A882A9831FEF70E0EA2475FC6F
:1041EC00EB3400FD8A828B83A3A3A3A3A3E0F50881
:1041FC00A3E0F5098C828D83E02508F0A3E0350956
:10420C00F07F028C828D83E088828983F08C828D92
:10421C0083A3AC82AD8388828983A3A882A9831FE0
:10422C00EF70E0EA2483F582EB3400F583E060194B
:10423C0075087D75090878081227377C0C790312EC
:10424C000F3C74021224E37E1074012EF5D975D93B
:10425C000375827D758308EEFFE0F5D9A31FEF701F
:10426C00F875E19579041210B07901800279000299
:10427C0049D674F61225249061D0E0F87480C39866
:10428C00FCEA2483F582EB3400F583E060047804C7
:10429C0080027800E8240AF8ECC398500302436EBD
:1042AC0075080890087D7401F07CF07D07787E79A4
:1042BC00087E058C828D83E088828983F08C828DC8
:1042CC0083A3AC82AD8388828983A3A882A9831E31
:1042DC00EE70E0EA2481FCEB3400FD8A828B83A330
:1042EC00A3A3A3A3E0FEA3E0FF8C828D83E02EF0BA
:1042FC00A3E03FF07E028C828D83E088828983F07C
:10430C008C828D83A3AC82AD8388828983A3A8829F
:10431C00A9831EEE70E0EA2483F582EB3400F5836A
:10432C00E0601A75087D75090878081227377C0833
:10433C007903120F3C74021224E375080C740125E6
:10434C0008F5D975D90375827D758308AE08E0F53B
:10435C00D9A31EEE70F875E19579041210B07901AD
:10436C00800279000249D674F7122524EAFEEBFF8D
:10437C009061D0E0600302446A75D91875D9037551
:10438C00D903EEF8EFF9E82408FAE93400FBE82445
:10439C009CF582E93400F583E0F5D988828983A302
:1043AC00A882A983EA687002EB6970E2EEF8EFF973
:1043BC00E82402FAE93400FBE824A4F582E934008D
:1043CC00F583E0F5D988828983A3A882A983EA685A
:1043DC007002EB6970E2EE2494F582EF3400F58301
:1043EC00E5822408F8E5833400F9E0F5D9A3E86503
:1043FC00827003E9658370F2EE2488F582EF340055
:10440C00F583E5822404F8E5833400F9E0F5D9A3BB
:10441C00E865827003E9658370F275E1957908EEC1
:10442C002494FAEF3400FB120EF47904EE2488FA8B
:10443C00EF3400FB120EF479041210B0EE2470F578
:10444C0082EF3400F583E0F8A3E0F9EE2472F582F4
:10445C00EF3400F583E8F0A3E9F0790180027900EC
:10446C0002455174F7122524EAFEEBFF9061D0E06F
:10447C00600302454C75D90E75D90375D904EE2429
:10448C008CF582EF3400F583E5822408F8E583345B
:10449C0000F9E0F5D9A3E865827003E9658370F251
:1044AC00EE2484F582EF3400F583E5822404F8E5EC
:1044BC00833400F9E0F5D9A3E865827003E96583DC
:1044CC0070F275E1957908EE248CFAEF3400FB124A
:1044DC000EF47904EE2484FAEF3400FB120EF47C13
:1044EC0000EEF8EFF9ECFAC3E49AFA95E0FBEE2A49
:1044FC00FAEF3BFBEA248BF582EB3400F583E0C04A
:10450C00E0E824ABF582E93400F583D0E0F00C88C8
:10451C00828983A3A882A983ECC3940840C7EE24A4
:10452C0070F582EF3400F583E0F8A3E0F9EE247225
:10453C00F582EF3400F583E8F0A3E9F0790180020D
:10454C0079008001F07F010225F6C082C08375D905
:10455C000275D90375D90575E195EA2470F582EBDE
:10456C003400F583E0F8A3E0F9EA2472F582EB3429
:10457C0000F583E8F0A3E9F07901023B3974F612F7
:10458C002524EAFEEBFF90087D7406F075087D7516
:10459C00090878081227377C017903120F3C740242
:1045AC001224E375D90675D90375827D758308E0ED
:1045BC00F5D9A3E58264827004E583640870F07514
:1045CC00E1959004A7E06408701EEE2470F582EF6C
:1045DC003400F583E0F8A3E0F9EE2472F582EF34B1
:1045EC0000F583E8F0A3E9F079010249D674F612DC
:1045FC002524EAFEEBFF9061D0E0705E90087D749C
:10460C000AF075087D75090878081227377C01793E
:10461C0003120F3C74021224E375D90675D9037585
:10462C00827D758308E0F5D9A3E58264827004E588
:10463C0083640870F075E195EE2470F582EF340018
:10464C00F583E0F8A3E0F9EE2472F582EF3400F57F
:10465C0083E8F0A3E9F07901800279000249D6746D
:10466C00F6122524EAFEEBFF9061D0E0706678012B
:10467C0090087D740BF09004A7E06407701975081E
:10468C007D75090878081227377C017903120F3CD5
:10469C0074021224E37805740128F5D975D90375D1
:1046AC00827D758308E8FAE0F5D9A31AEA70F875EB
:1046BC00E195EE2470F582EF3400F583E0F8A3E089
:1046CC00F9EE2472F582EF3400F583E8F0A3E9F0FB
:1046DC007901800279000249D674F7122524EAFE8A
:1046EC00EBFF75D90375D90375D90DEE24DEF58270
:1046FC00EF3400F583E0F5D975E19579041210B02B
:10470C00EE2470F582EF3400F583E0F8A3E0F9EEC7
:10471C002472F582EF3400F583E8F0A3E9F0790117
:10472C0002455174F6122524EAFEEBFF9061D0E0AD
:10473C00F87480C398FAEE2483F582EF3400F58385
:10474C00E06004780480027800E8240BF8EAC3984F
:10475C0050030248057D0990087D7408F0EE24E5AD
:10476C00F8EF3400F97A7E7B087C0888828983E034
:10477C008A828B83F088828983A3A882A9838A8208
:10478C008B83A3AA82AB831CEC70E0EE2483F582AE
:10479C00EF3400F583E0601D75087D750908780815
:1047AC001227377C097903EEFAEFFB120F3C7402E7
:1047BC001224E37D0D74012DF5D975D90375827D15
:1047CC007583088D08E0F5D9A31508E50870F67512
:1047DC00E19579041210B0EE2470F582EF3400F5F7
:1047EC0083E0F8A3E0F9EE2472F582EF3400F58350
:1047FC00E8F0A3E9F07901800279000249D674F659
:10480C00122524EAFEEBFF9061D0E0F87480C39887
:10481C00FAEE2483F582EF3400F583E0600478042B
:10482C0080027800E8240BF8EAC39850030248CFC2
:10483C007D0990087DEDF0EE24E5F8EF3400F97A6F
:10484C007E7B087C0888828983E08A828B83F0884F
:10485C00828983A3A882A9838A828B83A3AA82AB31
:10486C00831CEC70E0EE2483F582EF3400F583E0DA
:10487C00601D75087D75090878081227377C097941
:10488C0003EEFAEFFB120F3C74021224E37D0D745D
:10489C00012DF5D975D90375827D7583088D08E0D6
:1048AC00F5D9A31508E50870F675E1957904121091
:1048BC00B0EE241DF582EF3400F583E4F0A3F0791B
:1048CC0001800279000249D674F6122524EAFEEB27
:1048DC00FF9061D0E0F87480C398FAEE2483F582DF
:1048EC00EF3400F583E06004780480027800E8245B
:1048FC0008F8EAC39850030249D47D0690087D74E9
:10490C000CF09004C4E090087EF07AC57B04787FAC
:10491C0079087C028A828B83E088828983F08A8280
:10492C008B83A3AA82AB8388828983A3A882A98361
:10493C001CEC70E07AC77B047C028A828B83E08853
:10494C00828983F08A828B83A3AA82AB8388828933
:10495C0083A3A882A9831CEC70E0EE2483F582EF7C
:10496C003400F583E0601D75087D75090878081220
:10497C0027377C067903EEFAEFFB120F3C74021218
:10498C0024E37D0A74012DF5D975D90375827D75E3
:10499C0083088D08E0F5D9A31508E50870F675E1D4
:1049AC009579041210B0EE2470F582EF3400F58383
:1049BC00E0F8A3E0F9EE2472F582EF3400F583E819
:1049CC00F0A3E9F07901800279007F020225F674E8
:1049DC00F6122524EAFEEBFF9061D0E0F87480C358
:1049EC0098FAEE2483F582EF3400F583E0600478C6
:1049FC000480027800E82404F8EAC3985003024AC1
:104A0C00B5780290087DE8F0EE24F7F582EF3400DB
:104A1C00F583E090087EF0EE2483F582EF3400F508
:104A2C0083E0601B75087D75090878081227377CB0
:104A3C00027903EEFA120F3C74021224E378067426
:104A4C000128F5D975D90375827D7583088808E02E
:104A5C00F5D9A31508E50870F675E195EE2474F503
:104A6C0082EF3400F583E4F0EE2480F582EF34001D
:104A7C00F583E4F0EE241DF582EF3400F583E4F0C9
:104A8C00A3F079041210B0EE240DF582EF3400F58A
:104A9C0083E0F8A3E0F9EE2472F582EF3400F5839D
:104AAC00E8F0A3E9F07901800279000249D674F6A6
:104ABC001225249061D0E0F87480C398FCEA24831A
:104ACC00F582EB3400F583E0600478048002780012
:104ADC00E82404F8ECC398405B790290087D7407D5
:104AEC00F0EA24F8F582EB3400F583E090087EF0D0
:104AFC00EA2483F582EB3400F583E0601875087DB9
:104B0C0075090878081227377C0209120F3C7402C9
:104B1C001224E37906740129F5D975D90375827DC0
:104B2C00758308E9F8E0F5D9A318E870F875E195F4
:104B3C007901800279000249D674F5122524E9FC2A
:104B4C00A2AFE433F50AC2AF7D0080010DEA246FF9
:104B5C00F582EB3400F583E0F8EDC398501A8D081C
:104B6C00EA2508F8EB3400F9E8246BF582E9340007
:104B7C00F583E06C70D68024EA246FF8EB3400F9EE
:104B8C00E0FEEA2EFAEB3400FBEA246BF582EB3400
:104B9C0000F583ECF088828983E004F0E50AA2E05A
:104BAC0092AF7F030225F674F6122524A2AFE433EC
:104BBC00FDC2AFEA246FF582EB3400F583E014F00C
:104BCC007C0060368C08EA2508F8EB3400F9E82400
:104BDC006CF582E93400F583E0C0E0E8246BF582E3
:104BEC00E93400F583D0E0F00CEA246FF582EB3465
:104BFC0000F583E0F8ECC39840CAEA246EF582EB2A
:104C0C003400F58374FFF0EA246AF582EB3400F586
:104C1C0083E4F0EDA2E092AF0249D6C082C083E5F6
:104C2C00A8F8C2AFEA246BF582EB3400F583E9F007
:104C3C00EA246AF582EB3400F583E4F0E8A2E7920B
:104C4C00AF023B3974F3122524EAFEEBFFECFAEDCC
:104C5C00FB8A828B83A3A3A3A3E0541FF0EE24361C
:104C6C00F582EF3400F583E4F0F50AEEFCEFFD8AF3
:104C7C00828B83E0C0E0EC245DF582ED3400F5839B
:104C8C00D0E0F0750B00E50A33333354F8F50C8A99
:104C9C00828B83E0F508750900E50B780812249BDC
:104CAC00E508A2E0502FEE2436F8EF3400F98882A4
:104CBC008983E0F508EE2508F508EF3400F509E5E1
:104CCC00082438F582E5093400F583E50CF0888278
:104CDC008983E004F0050B050CE50BC3940840AF89
:104CEC00050A8A828B83A3AA82AB838C828D83A3D1
:104CFC00AC82AD83E50AC394055003024C7B7F055F
:104D0C000225F674F71225249004D3E0640370078F
:104D1C007A007B000245517B0078D3790488828924
:104D2C0083A3A3A3A3A3A3E06003025009EBF8752C
:104D3C00F006A4C8AAF02AF974D728F8740439F933
:104D4C0088828983A3A37401F088828983A3A3A397
:104D5C00E4F0EB88828983A3A3A3A3F0E82462F593
:104D6C0082E93400F5837401F0E82465F582E934B6
:104D7C0000F583E4F0A3F0E82468F582E93400F54B
:104D8C00837401F088828983A3A3A3A3A3E4F0A373
:104D9C00F088828983A3A3A3A3A3A3A3F0A3F0E821
:104DAC00240FF582E93400F5837401F0E82435F51D
:104DBC0082E93400F583E4F0908B601223BBE82485
:104DCC0018F582E93400F5831223C7E8241CF58218
:104DDC00E93400F583E4F0E8241DF582E93400F5AC
:104DEC0083E4F0A3F0E82480F582E93400F583E451
:104DFC00F0E82474F582E93400F583E4F0E82469E2
:104E0C00F582E93400F5837480F0E8246AF582E9D0
:104E1C003400F583E4F0E8246FF582E93400F5837F
:104E2C00E4F0E82467F582E93400F583E4F0E82443
:104E3C00EDF582E93400F583E4F0E824EEF582E93F
:104E4C003400F583E4F0E824EFF582E93400F583CF
:104E5C00E4F0E824F0F582E93400F583E4F0E8248A
:104E6C00F1F582E93400F583E4F0A3F0E824F3F5DE
:104E7C0082E93400F583E4F0A3F0E824F6F582E946
:104E8C003400F583E4F0E82483F582E93400F583FB
:104E9C00E4F0E824D3F582E93400F583E4F0E82467
:104EAC00D4F582E93400F583E4F0908B601223BBD7
:104EBC00E824D5F582E93400F5831223C7908B6082
:104ECC001223BBE824D9F582E93400F5831223C7F9
:104EDC00E824DFF582E93400F583E4F0E824E1F519
:104EEC0082E93400F583E4F0E824DDF582E934004E
:104EFC00F583E4F0E824E2F582E93400F583E4F08C
:104F0C00E824E3F582E93400F583E4F0E824F9F5CC
:104F1C0082E93400F583E4F0A3F0E824FBF582E9A0
:104F2C003400F583E4F0A3F0E824FDF582E93400C5
:104F3C00F583E4F0A3F0E824FFF582E93400F5836F
:104F4C00E4F0A3F0E8FAE9FBEA2404FCEB3400FDFE
:104F5C00EA246BF582EB3400F58374FFF08A828BC4
:104F6C0083A3AA82AB83EC6A7002ED6B70E2E8FA61
:104F7C00E9FB7CF07D078C828D83E0C0E0EA245D48
:104F8C00F582EB3400F583D0E0F08C828D83A3ACFA
:104F9C0082AD838A828B83A3AA82AB83EC64F57087
:104FAC0003ED640770D0E8FAE9FB7CBA7D048C82CF
:104FBC008D83A3E0C0E0EA24E5F582EB3400F583B1
:104FCC00D0E0F08C828D83A3AC82AD838A828B83FC
:104FDC00A3AA82AB83EC64C27003ED640470CF901F
:104FEC0004D3E004F06401700D88828983A3A3A329
:104FFC00A3E09004D5F0E8FAE9FB024D200BE8247D
:10500C0006F8E93401F9EBC394034003024D1C028A
:10501C004D29C082C0838A828B83A3A3A3E0600F37
:10502C008A828B83A3A3A3E4F09004D4E014F090C1
:10503C0004D3E014F070069004D574FFF08A828BD0
:10504C0083A3A3E4F09007F5E0700D9004D4E06422
:10505C00017005790012107A023B39C082C0837846
:10506C00D3790488828983A3A3A3A3A3A3A3E4F085
:10507C0088828983A3A3A3A3A3A3F0E82406F8E959
:10508C003401F9E864E57003E9640770D69004D341
:10509C00E4F0A3F0A374FFF075E1F1023B3974F373
:1050AC00122524750800750900750C00750AD77552
:1050BC000B04AE0AAF0B8E828F83A3A3A3E0603FD9
:1050CC00E5084509700AEEF8EFF988088909802F80
:1050DC00850882850983E0F8A3E0F5838882A3A381
:1050EC0012274A8E828F83E0F8A3E0F5838882A38F
:1050FC00A31223BB122DE574041224E3E960C70547
:10510C000CEE2406F50AEF3401F50BE50CC3940301
:10511C0040A0850882850983A3A3A3A3E0F9024DCF
:10512C000A74F612252478FF79FF7508007ED77F64
:10513C0004EEFCEFFD8C828D83A3A3A3E06064746A
:10514C00FF68700374FF697025EC2474F582ED34EC
:10515C0000F583E064017011EC247AF582ED3400E3
:10516C00F583E0F8A3E0F9803AEC242E80EDEC24F2
:10517C0074F582ED3400F583E064017014EC247A4C
:10518C00F582ED3400F583C3E098A3E099501480C8
:10519C00C7EC242EF582ED3400F583C3E098A3E030
:1051AC009940C60508EE2406FEEF3401FFE508C35E
:1051BC009403500302513DC3EA98EB994004E8FA7A
:1051CC00E9FB0249D674F6122524EAFEEBFF8E8227
:1051DC008F83A3A3A3E0600F8E828F83A3A3A3E48A
:1051EC00F09004D4E014F09004D3E014F070069026
:1051FC0004D574FFF08E828F83A3A3E4F09007F59F
:10520C00E0700D9004D4E064017005790012107AFE
:10521C00EE2465F582EF3400F583E0F8A3E0F9E8BD
:10522C00496029EE2465F8EF3400F988088909886B
:10523C0082F583E0FCA3E0FD9004D5E0FA7B00123C
:10524C000B5E850882850983E4F0A3F0EEFAEFFB90
:10525C00120FBA0249D674F7122524EAFEEBFF8E20
:10526C00828F83A3A3A3A3E0FA7B00120BA6EEFA12
:10527C00EFFB120EB2120F9C024551C082C0837C10
:10528C00007AD77B04EAF8EBF988828983A3A3A37D
:10529C00E0601EE8246FF582E93400F583E06011CC
:1052AC00E8246BF582E93400F583E0700479018021
:1052BC00110CEA2406FAEB3401FBECC3940340C551
:1052CC007900023B39C082C08378BA79048882891C
:1052DC0083A3E4F088828983A3A882A983E864C2AB
:1052EC007003E9640470E69004BB0238CBC082C042
:1052FC008374FC1224CD908B601223BB851882859D
:10530C0019831223C7120EFAE9851882851983F0C6
:10531C00120EFA7401122518E9F0120EFA74021228
:10532C002518E9F08518828519831223BB740402B1
:10533C00335174F6122524EAFEEBFFEC2403F8ED4E
:10534C003400F988088909EC2407F8ED3400F9E8F1
:10535C00FCE9FD8C828D83E0F8A3E0F98508828559
:10536C000983E0FAA3E0FB122442EE240DF582EF50
:10537C003400F583E8F0A3E9F08C828D83E0F8A388
:10538C00E0F9850882850983E0FAA3E0FB12244248
:10539C008B09EA45096013EE240DF582EF3400F514
:1053AC0083E02401F0A3E03400F00249D674F61235
:1053BC002524EAFEEBFFEE242EF582EF3400F58374
:1053CC00E0FCA3E0FD780079FAECFAEDFB12244244
:1053DC00EE2470F582EF3400F583E8F0A3E9F07861
:1053EC000079FAECFAEDFB1224428B09EA450960CC
:1053FC0013EE2470F582EF3400F583E02401F0A362
:10540C00E03400F00249D674F0122524EAFEEBFFDA
:10541C007410122518780812239D12103E8A0C8BDA
:10542C000D8C0E8D0F908B6C780C1222EB908BA840
:10543C00780C122364780C1227338E828F83E0F859
:10544C00A3E0F5838882A3A31223BB122DE5740479
:10545C001224E3E960030255608E828F83E02402FC
:10546C00F8A3E03400F9E8FAE9FB8A828B83780828
:10547C001222FE908BA8780812239D8A828B837847
:10548C0008122377EE240BF582EF3400F583C082EB
:10549C00C0838E828F83A3A3A3A3A3E02401F8A3CC
:1054AC00E03400F9D083D082E0687003A3E0697027
:1054BC000579010255628E828F83A3A3A3A3A3A3B4
:1054CC00A3E02401F0A3E03400F0EE2474F582EFA5
:1054DC003400F583E064017036EE2475F582EF3408
:1054EC0000F583E0F8A3E0F98E828F83A3A3A3A336
:1054FC00A3A3A3E0687003A3E0697013EE2475F511
:10550C0082EF3400F583E02401F0A3E03400F0EEE8
:10551C002480F582EF3400F583E064017036EE24CC
:10552C0081F582EF3400F583E0F8A3E0F98E828FE9
:10553C0083A3A3A3A3A3A3A3E0687003A3E0697050
:10554C0013EE2481F582EF3400F583E02401F0A3FF
:10555C00E03400F079007F080225F674F712252458
:10556C009004D5E0F875F006A4C8AAF02AF974D70F
:10557C0028FE740439FF8028EE2465F8EF3400F916
:10558C0088828983E0FCA3E0FD88828983E4F0A310
:10559C00F08E828F83A3A3A3A3E0FA7B00120B5E91
:1055AC00EE2465F582EF3400F583E0F8A3E0F9E82A
:1055BC0049604FEE2464F582EF3400F583E0F50882
:1055CC00780812273BEE2463F582EF3400F583E074
:1055DC00F9EE2465F582EF3400F583E0FCA3E0FDE1
:1055EC00EEFAEFFB120EE874011224E3E96089EE87
:1055FC002465F582EF3400F583E0F8A3E0F9E8497F
:10560C0070137C007D008E828F83A3A3A3A3E0FA8A
:10561C007B00120B5E02455174F2122524EAFEEB5C
:10562C00FF890A740E122518E0FAEE2462F582EF57
:10563C003400F583E0640160030256F09061D0E021
:10564C00F87480C398F50CEE2483F582EF3400F5E2
:10565C0083E060047804800278008908E928F8E483
:10566C003400F9E824020808E93400F9E50C98E460
:10567C0099A2D265D0334068EA7005750B0280039D
:10568C00750B01E0603975090078081227377A7DAF
:10569C007B08120F1E74021224E375087D7509082D
:1056AC007808122737AC0AA90BEEFAEFFB120F3C65
:1056BC0074021224E37404250AF50A7C7D7D0874B7
:1056CC0001250AF5D9850BD9E50A600D8C828D83ED
:1056DC00F8E0F5D9A318E870F875E1957900800623
:1056EC007907800279FF7F060225F6C082C083E924
:1056FC0060208C828D83E08A828B83F08C828D83F8
:10570C00A3AC82AD838A828B83A3AA82AB8319E973
:10571C0070E0ECFAEDFB023B3974F4122524E990AD
:10572C0004A6F012104A907800E0C4540F54076499
:10573C00037004793F8002797F750806750900783B
:10574C00081227377C947D047AEA7B0712164A7478
:10575C00021224E3900494E0F47049A3E0F4704442
:10576C00A3E0F4703FA3E0F4703AA3E0F47035A327
:10577C00E0F4703090780EE0900494F090780FE0A4
:10578C00900495F0907810E0900496F0907811E0E9
:10579C00900497F0907812E0900498F0907813E0D1
:1057AC00900499F090049A74FFF0A3F0A3F0A3F086
:1057BC00A3F0A3F0900494E09004A0F0900495E082
:1057CC009004A1F0900496E09004A2F0900497E06D
:1057DC009004A3F0900498E09004A4F0900499E055
:1057EC009004A5F09004C47406F0A3740DF0A3E427
:1057FC00F0A37432F0A37401F09007FB74FFF0A3D4
:10580C00F0A3F0A3F0A3F0A3F09007FAE4F0900853
:10581C0001F0A374A0F0A3E4F0A37403F0A3740745
:10582C00F0A3E4F0A37428F0A3E4F0A304F0A3E441
:10583C00F090082AF090085074FFF0A3F0A3F0A3A6
:10584C00F0A3F0A3F090084FE4F090085604F0A3F6
:10585C00E4F0A3F0A37480F0A37402F0A37480F0BE
:10586C00A37402F0A3E4F0A304F0A3F0A3E4F0A368
:10587C007425F0A3E4F0A3F090086774FFF0A3F094
:10588C00A3F0A3F0A3F0A3F0900866E4F090086DE9
:10589C0004F0A3E4F0A37480F0A37402F0A374806A
:1058AC00F0A37402F0A37425F0A3E4F0A3F0A374A6
:1058BC0005F090087774FFF0A3E4F0900879F0906D
:1058CC00087B04F0120DC2120CD812100879017A60
:1058DC007C7B08120F0090087CE075F01484E5F0D6
:1058EC0004F0790C7A9D7B08120F00120F187A00C5
:1058FC009004A6E0F912149A907803E06442705E6A
:10590C0090087CE014F07056C2AF12591900782A36
:10591C00D0E0F618D0E0F6E59F5407F97005908BAF
:10592C008C8003908B90780812239DE9C4C0E0789A
:10593C0029E65508F50808E65509F509740B7808A9
:10594C001224ABD0E02508F8906270E0A2E740F892
:10595C00E8C333906272F0906270E0D2E0F0900491
:10596C00D1E4F0A3F07A80FB9004A6E0F91214467F
:10597C000269B974F6122524EAFEEBFFEEA2E050A0
:10598C00489004A8E0C39480E0500FC333F8E4338C
:10599C00F9744F28F5827414800EF4C333F8E43391
:1059AC00F9745D28F582741439F583E0F8A3E0F5F9
:1059BC008388821225227A009004A6E0F912149AA8
:1059CC00EE6401FAEFFB025C5954087003025A6F43
:1059DC00900875E0F875F006A4C8AAF02AF974D7F7
:1059EC0028FA740439FB750800780812273BEA245E
:1059FC0032F582EB3400F583E0F508A3E0F5097489
:105A0C000478081224AB7808122737EA2430F58280
:105A1C00EB3400F58312274EEA242EF582EB34008A
:105A2C00F583E0F508A3E0C313F509E50813F508C1
:105A3C0078081227377508EA75090778081227378E
:105A4C009007E9E0FD7C008A828B83A3A3A3A3E0EB
:105A5C00FA7B007900120BA074091224E3EE64089F
:105A6C000259CFEE54106040750800780812273B9D
:105A7C00E4F50978081227377808122737780812C6
:105A8C0027377508EA75090778081227379007E950
:105A9C00E0FD7C007A007B007902120BA0740912E5
:105AAC0024E3EE64100259CFEE54026040750800F6
:105ABC00780812273BE4F509780812273778081282
:105ACC00273778081227377508EA750907780812FE
:105ADC0027379007E9E0FD7C017A007B00793C12C6
:105AEC000BA074091224E3EE64020259CFEE5404A5
:105AFC007003025B9E9004D5E0F875F006A4C8AA6A
:105B0C00F02AF974D728FA740439FBEA242AF582AE
:105B1C00EB3400F583E0F508780812273BEA2432D1
