:020000040000FA
:0600000002010A022B9729
:03002B0002301888
:03003300022FFA9F
:03003B000230315F
:03004300022FAEDB
:03005300022C0A72
:03006B00022FD48D
:10008300022A4BE5C754F84401F5C7790122000061
:100093000080FB120086B900030200F4E4792178A2
:1000A30008B800028004F709D8FCE479297802B87B
:1000B30000028004F709D8FCE490028178D3791216
:1000C3008002F0A3D8FCD9FA901453AA82AB839090
:1000D300013A787879048015E493A3AC82AD838ADE
:1000E300828B83F0A3AA82AB838C828D83D8E9D9D8
:1000F300E77582E97583F6740412011C75829175A4
:100103008300740012011C75D00075813F7518813E
:10011300751902759F00020096C09FF59FE473D086
:100123009F22D083D082C09FE493C0E0740193C028
:10013300E0740293F59F222B063D0667063106FF06
:100143000000B4000028002800283075A000A0009B
:10015300A000A00000080008E001F000100010005B
:10016300100010001000100050005000500010004C
:100173001000D0070000000000000F000100050080
:10018300307507001000010081FF0000FFAB07C9B5
:1001930007B107FF02020208025000A0000000E8B6
:1001A30003029D8B010000758B02938B010000B04D
:1001B3001402B18B010000B70202938B010000B15E
:1001C3001402B78B010000CD0202938B010000B231
:1001D3001402BD8B010000CF0202938B010000B318
:1001E3001402A58B080000D00202938B010000B417
:1001F3001402A38B010000B514FFFF0100FF2002CE
:100203009D8B010000878B02938B0100001A15025E
:10021300998B000000000002AD8B030000B103F5D1
:100223000EF50EF50EF50EF50EF50EF50EF50EF5B3
:100233000EF50EF50EF50EF50EF3101111ED10314E
:100243001249122B12FFFF020202020202020202F1
:10025300010D0000001001029D8B010000788B024C
:10026300938B0100006315028F8B010000710E0256
:10027300938B010000641502A78B010000FA87022B
:10028300938B010000651502A98B010000308702E2
:10029300938B010000661502AB8B0100009585026C
:1002A300938B010000671502AF8B010000DD85020F
:1002B300938B010000681502CD8B010000CB8502F2
:1002C300938B010000691502BB8B010000B9850205
:1002D300938B0100006A1502B58B0100008487022D
:1002E300938B0100006B1502B38B0100006C1501A9
:1002F300E803053F1002FF00013075030201060009
:1003030000000000000000000000000000000000EA
:100313000000000000000000000000FFFF06008056
:100323000CE803FEFF01010201060302F0FF0201D4
:10033300061AFF4C000215E2C56DB5DFFB48D2B0CB
:1003430060D0F5A71096E000010002CD3D184318D8
:100353004F18551849180A436861726163746572CE
:100363006973746963203100024368617261637465
:10037300657269737469632032000843686172614E
:100383006374657269737469632033001043686131
:100393007261637465726973746963203400024324
:1003A300686172616374657269737469632035008F
:1003B300164368617261637465726973746963205B
:1003C3003600029D8B0100007B8B02938B010000A2
:1003D300721602C18B030000FE13029B8B01000007
:1003E300731602938B010000841602C38B01000075
:1003F300FF13029B8B010000851602938B01000003
:10040300961602C58B0200000014029B8B010000AC
:10041300971602938B010000A81602C78B000000F9
:10042300011402AD8B0300000214029B8B01000038
:10043300A91602938B010000BA1602C98B040000AF
:100443000E14029B8B010000BB1602938B0100006C
:10045300CC1602CB8B030000131402AD8B030000F8
:100463002714029B8B010000CD1630313233343513
:100473003637383941424344454600286E756C6C23
:1004830020706F696E74657229003F3F3F00000062
:10049300807F0000803FF9021550B743BA51000036
:1004A300204100E7DB2E0000A040080000001201FD
:1004B30025C9EC04120125DFEC041201250CED041F
:1004C3001201253CED041201255DED041201258E78
:1004D300ED04120125DFED04120125F6ED041201EE
:1004E300256CE60412012583E604120125B2E60415
:1004F300120125EBE60412012513E704120125413D
:10050300E70412012558E7041201256FE7041201DD
:100513002585E704120125ACE704120125BFE70492
:10052300120125D5E704120125E8E7041201250D80
:10053300E80412012521A80312012520A9031201B1
:10054300254AA9031201259FA903120125C0A90366
:10055300120125D9A903120125DBA903120125FCE8
:10056300A903120125FFAA03120125BCAB03120143
:100573002589AC03120125EDAC0312012584AD03DB
:1005830012012587AD031201250DAE03120125507B
:10059300AE03120125A2AE03120125D9AE03120147
:1005A300255FAF03120125E8AF0312012531B00324
:1005B3001201253EB00312012541B0031201259F0C
:1005C300B003120125B7B00312012531B1031201A3
:1005D3002534B10312012557B1031201255AB10382
:1005E30012012501B20312012524B2031201253C95
:1005F300B2031201256CB20312012579B203120171
:10060300257CB203120125E8B203120125D6B303F8
:100613001201258CB4031201251FD703120125FFF4
:10062300D7031201257FD8031201259FD803120196
:1006330025DDD80312012530D90312012598D903EA
:1006430012012529DA03120125F4DA031201250325
:10065300DE031201256FDF0312012592DF0312016E
:100663002552FC02120125E3FD0212012534FE028C
:1006730012012593FE02120125A1FE02120125CAD1
:10068300FE021201253DB10412012565B1041201D8
:100693002593B104120125CAB10412012532B20413
:1006A3001201257BB204120125C6B20412012504EE
:1006B300B30412012541B3041201256FB3041201DF
:1006C3002516B40412012520B4041201252DB40407
:1006D30012012560B40412012522B5041201252E4E
:1006E300B50412012546B50412012550B5041201C3
:1006F30025CEB5041201253CF1041201254AF1046B
:1007030012012562F1041201257AF10412012592E6
:10071300F10412012543D102120125E1D102120194
:100723002559D2021201256ED302120125A8D30244
:1007330012012551D40212012526D5021201258A60
:10074300D602120125E1D60212012568D702120151
:10075300254FD8021201259CD8021201252AD9025D
:100763001201254ED90212012523DB021201256451
:10077300DB0212012586DB0212012507DC021201CE
:1007830025F1DC02120125B7DD02120125ECDF029F
:10079300120125948E04120125668F041201250F80
:1007A3009004120125529004120125DF90041201D6
:1007B300256B91041201254C92041201257B9204AE
:1007C300120125779304120125BF9304120125C159
:1007D30094041201250595041201252B9504120199
:1007E30025DAF504120125C6C604120125DCC60468
:1007F30012012502C7041201252AC8041201253457
:10080300C8041201258DC9041201258DCA041201E1
:100813002597CA0412012517AC041201254CAD0417
:100823001201257FAD04120125C9AD0412012587EC
:10083300AF041201250080021201257E80021201FD
:10084300258E80021201257181021201259F8102EA
:10085300120125AA81021201259482021201253078
:100863008302120125348502120125EB860212014F
:1008730025678702120125448802120125728B0223
:10088300120125108C021201256D8D02120125E043
:100893008E02120125898F02120125D28F021201C5
:1008A30025099002120125AE90021201252C910216
:1008B300120125F4C10212012549C2021201258E3B
:1008C300C3021201259EC302120125C1C3021201F4
:1008D300250CC402120125B1C402120125A7C502C9
:1008E30012012571C602120125E9C7021201252B47
:1008F300C802120125C9C80212012516C902120134
:10090300253CC9021201252ACB021201252FCB0255
:1009130012012510CD0212012564CD02120125C654
:10092300CD02120125EECD0212012592CE02120153
:100933002554CF0212012585CF0212012588CF024B
:10094300120125D0CF0212012512D00212012579FE
:10095300D0021201256DDE0412012580DE0412018E
:100963002589DE04120125A2DE04120125EDDE0431
:10097300120125C8DF0412012557E004120125A244
:10098300E0041201255EAA011201256EAA011201DB
:1009930025D1AA0112012516AB01120125C6AB010F
:1009A3001201259AAC0112012502AD011201252B7A
:1009B300AD011201255BAD011201256FAF011201DB
:1009C300254BB1011201252BB30112012563B4019B
:1009D300120125DCB601120125C8B7011201250E4B
:1009E300B9011201251BBA011201255DBA011201D9
:1009F3002595BA01120125AFBA0112012517BB01D2
:100A0300120125B1BF0112012552C001120125A611
:100A1300C001120125CDC0011201250BC101120134
:100A2300252AC1011201257EC10112012557C201E8
:100A3300120125DEC30112012567C401120125003D
:100A430080041201250A8004120125A680041201E4
:100A5300256D81041201258C8104120125B28104C4
:100A6300120125F181041201252982041201255264
:100A73008204120125CF8204120125E482041201AB
:100A830025F982041201252183041201255B8304C5
:100A93001201257F83041201254884041201255E77
:100AA3008404120125718404120125868404120131
:100AB3002518850412012552850412012583850416
:100AC300120125AF8504120125F385041201256364
:100AD3008604120125B7860412012500870412013A
:100AE300252A87041201254F8704120125F6BE0427
:100AF300120125C0BF04120125A3C0041201251948
:100B0300C1041201255BC10412012588C20412012C
:100B130025CFF001120125F8F00112012511F10191
:100B230012012556F20112012534F3011201255356
:100B3300F301120125E0F30112012523F40112014F
:100B4300255BF501120125C7F501120125BDF7014A
:100B53001201254BFA01120125DEFA01120125B219
:100B6300FB0112012555FC011201253FFD01120174
:100B730025ABFE0112012541FF011201250DEE04F3
:100B830012012576EE04120125CAEE04120125F1A5
:100B9300EE0412012522EF041201255FB6041201AF
:100BA30025CCB60412012517B7041201250CB8048D
:100BB30012012508B904120125F2B904120125CA4C
:100BC300E0031201250CE103120125E6E103120102
:100BD30025BFE203120125BAE30312012599E403B9
:100BE30012012505E503120125E7E503120125524C
:100BF300E603120125B9E603120125BCE60312013F
:100C030025E7E60312012558E703120125EBE70365
:100C130012012554E80312012569E803120125B1E5
:100C2300E803120125CAE8031201252FE903120183
:100C33002532E9031201251FD2041201255BD204D8
:100C430012012599D20412012563D304120125D67A
:100C5300D30412012511D4041201254FD404120127
:100C6300257FD404120125A6D40412012511D5042D
:100C730012012553D504120125855600120125DFE3
:100C83005800120125BC5B00120125975C0012017C
:100C930025E25C001201252D5D001201253F5D0058
:100CA3001201257F5D00120125B45D0012012500AC
:100CB3005E001201252F5E00120125525E00120113
:100CC30025D95E00120125C55F001201256E620061
:100CD3001201255964001201259C6400120125FFAD
:100CE30065001201254066001201254267001201CA
:100CF300251E6900120125D369001201256D6A00C2
:100D0300120125B86F00120125FE6F001201253C68
:100D130070001201256F72001201257C740012010C
:100D2300254C7500120125CCE0041201256CE20468
:100D3300120125F7B40312012522B5031201250977
:100D4300BC031201252DBE03120125E8BF031201C6
:100D53002545C103120125A430001201253B3100B2
:100D6300120125813100120125B73200120125DC61
:100D73003200120125733400120125ED34001201F3
:100D830025313500120125A63500120125D536007F
:100D9300120125353800120125373900120125A02B
:100DA3003A00120125F03A001201255B3C001201C2
:100DB30025C53E00120125A13F00120125BA3F00BF
:100DC3001201251740001201253640001201255556
:100DD3004000120125584000120125DE4100120196
:100DE30025D34200120125CF4300120125B644004A
:100DF300120125E94400120125594500120125CBB2
:100E030045001201254546001201258F46001201B7
:100E1300256A47001201253448001201253B490089
:100E23001201251A4A00120125A54A0012012513B1
:100E33004B00120125874B00120125B04B00120114
:100E4300256F4C001201257E4F00120125C74F006C
:100E53001201250A50001201258D5000120125317F
:100E63005100120125C25100120125E75100120160
:100E7300253152001201255952001201259E5200BC
:100E8300120125195300120125735300120125C7BE
:100E930054001201258455001201255756001201F2
:100EA3002583EE02120125D3EE02120125DFEE02A5
:100EB300120125BCEF02120125ECEF0212012524D9
:100EC300F002120125A3F002120125DBF002120148
:100ED300252DF1021201256AF1021201258FF30279
:100EE300120125BBF502120125B6F7021201259165
:100EF300F902120125F67F00120125CAF903120136
:100F030025FCFD031201254CFF0312012562B202E9
:100F130012012534B9021201253AB902120125EA58
:100F2300BB02120125A0A1041201254CA204120147
:100F3300251AA30412012544A30412012592A50432
:100F4300120125D08B011201251A8C011201250EE5
:100F53009B011201258F9C01120125879D0112011E
:100F630025E6A301120125E1A4011201251EA50115
:100F730012012541A50112012583A5011201258C2A
:100F8300A50112012596A50112012582A6011201D0
:100F93002576A7011201250FA801120125CEC40150
:100FA30012012546CF011201254CCF01120125580C
:100FB300D6011201259BD50412012599D6041201ED
:100FC30025EFD6041201252DD7041201258AD70453
:100FD30012012507D80412012510D8041201251C7B
:100FE300D8041201252FD8041201256BD80412014D
:100FF3002581D804120125A09504120125AD95047D
:10100300120125C7950412012506960412012544F1
:101013009604120125A99604120125BE9604120115
:1010230025C99604120125D69604120125ED9604CE
:10103300120125FB96041201250A97041201251FAC
:1010430097041201253497041201253F97041201D6
:10105300254B97041201255897041201256797041D
:101063001201257297041201259797041201254056
:101073009804120125509804120125659804120161
:10108300257A9804120125949804120125AF980437
:10109300120125CC9804120125D798041201259337
:1010A30099041201257F9A04120125A49A041201BE
:1010B30025AE9A04120125C29A04120125E19A046D
:1010C300120125429B04120125489B041201254E5F
:1010D3009B04120125549B04120125609B041201F9
:1010E30025939B04120125767500120125A2750034
:1010F300120125867600120125207900120125367A
:101103007A00120125537B00120125F67B001201A0
:10111300259C7C00120125A88D031201252A8E032C
:10112300120125D38E031201251B900312012529D9
:1011330092031201250F9303120125449303120115
:10114300256693031201250F9403120125DF9503EE
:10115300120125089603120125809603120125B278
:101163009603120125BF96031201250A9703120164
:10117300252E97031201257F9903120125899A03CE
:10118300120125E59A03120125FBDF021201250C4A
:10119300E102120125F0E102120125FAE102120136
:1011A3002504E20212012526E20212012532E2029F
:1011B300120125D6E30212012503E40212012519C7
:1011C300E5021201256EE502120125BDE6021201B8
:1011D3002592E702120125EEE70212012559E802E2
:1011E3001201258EE802120125D1E8021201259B86
:1011F300EB02120125B3EB0212012544EC021201AA
:101203002552EC021201259FEC02120125ADEC02DE
:1012130012012519ED0212012594ED02120125EBAD
:10122300ED0212012568C1031201258AC1031201CF
:10123300259BC3031201255AC60312012584C70344
:1012430012012542C8031201252EC903120125B339
:10125300E404120125D8E4041201254EE504120129
:1012630025778704120125808704120125898704C5
:10127300120125618804120125128A0412012542F4
:101283008A041201256D8A041201259D8A04120124
:1012930025C88A04120125FC8A04120125288B041F
:1012A3001201256B8B04120125968B04120125DD97
:1012B3008B04120125328C04120125748C04120153
:1012C30025CE8C04120125F98C04120125488D04C6
:1012D300120125788D04120125A38D04120125D155
:1012E3008D04120125F48D041201256AF7041201FD
:1012F3002596F704120125C3F704120125CDF7043F
:10130300120125DDF70412012556E90312012560B8
:10131300E903120125A1E903120125EAE9031201F8
:101323002524EA031201257AEA031201259BEA0325
:101333001201254AED0312012553ED03120125A7DE
:10134300ED03120125D0ED03120125DAED0312019D
:101353002548EE03120125D8EE0312012533EF03CE
:1013630012012561EF03120125E9EF03120125287C
:10137300F0031201255DF0031201256FF003120142
:10138300259BF003120125A4F00312012566F10346
:1013930012012545F004120125C2E204120125F8C9
:1013A300E2041201252CE30412012579E40412015D
:1013B300258FFF03120125A5FF03120125AFFF03AC
:1013C300120125C4F404120125B4BA04120125C77D
:1013D300BA041201258BBB04120125CABB041201F6
:1013E30025E7BB0412012520BC041201256DBC04B2
:1013F3001201259FBC04120125D6BC04120125E964
:10140300BE041201254FF504120125B7E9041201A8
:1014130025DAE90412012509EA04120125A1EA04E7
:10142300120125B9EA04120125FBEA041201251071
:101433009C04120125529C04120125D99C0412011B
:10144300252E9D04120125739D04120125229E045D
:101453001201257D9E04120125CC9E04120125262E
:101463009F0412012533A0041201252BA1041201AC
:101473002568A104120125B1D804120125D6D80488
:1014830012012500D90412012563F6041201251364
:10149300DB0112012511DD01120125DEDE0112013E
:1014A300258BDF011201250BE00112012590E001DC
:1014B300120125B9E0011201250BE101120125F109
:1014C300E50112012568E6011201257FE7011201FA
:1014D30025B9E701120125FAE70112012541E901C6
:1014E30012012570E901120125C6E9011201250F38
:1014F300EA011201257BEA01120125EFEA0112013B
:10150300251DEB0112012535EB011201254EEC01DE
:101513001201255EEC0112012517EE011201252EA1
:10152300EE0112012560EE01120125FDEF0112010A
:101533002591F0011201252BF2041201253CF2043E
:10154300120125AD7F00120125EC7F001201253C1D
:10155300F80412012527F40412012537F4041201BB
:101563002552F404120125BAF40412012543EF04B1
:10157300120125C8EF041201252CF00412012544A1
:10158300EB041201256DEB04120125D8EB041201C3
:101593002529EC0412012584EC04120125E2C2047E
:1015A30012012507C30412012524C3041201254196
:1015B300C30412012566C30412012587C304120163
:1015C30025B1C3041201256EC404120125ECC40421
:1015D30012012513C5041201251DC504120125425C
:1015E300C6041201256ECE0412012585CE04120114
:1015F30025FFCE04120125E3CF04120125BAD1043D
:10160300120125A1CA0412012531CB04120125BA06
:10161300CB0412012556CC04120125E7CC04120198
:101623002597CD04120125A5CD0412012525CE044D
:1016330012012538CE041201254ECE04120125587D
:10164300CE041201256BCE04120125DCF204120133
:101653002561F3041201256CF3041201257CF304C4
:101663001201251FE80412012571E804120125E483
:10167300E80412012551E90412012595DB04120146
:1016830025BFDB041201258EDC041201256ADD046B
:10169300120125FBDD0412012594F10312012560DB
:1016A300F203120125A1F203120125DBF203120159
:1016B3002539F3031201258DF303120125EBF303FF
:1016C30012012581F40312012589F5031201251363
:1016D300F703120125B1F70312012518F8031201CC
:1016E300252BF8031201251FF90312012568F903BD
:1016F300120125329B03120125649E03120125F575
:101703009F031201254CA00312012569A0031201B6
:1017130025E9A00312012565A20312012534A303C1
:10172300120125A1A6031201258BA7031201252F60
:10173300A20212012555A2021201258AA202120158
:1017430025F6A20212012579A3021201258BA30219
:101753001201252DA4021201254FA60212012574A0
:10176300A6021201259DA602120125CEA602120190
:1017730025D1A60212012513A70212012522A702D1
:101783001201252DA70212012586A7021201258D1C
:10179300A7021201253CA80212012546A802120144
:1017A3002561A80212012576A802120125A1AA0229
:1017B300120125D6AB0212012586CC031201258620
:1017C300CD03120125CACD03120125F6CE03120162
:1017D30025C8CF03120125F0CF0312012558D403E6
:1017E300120125A8D40312012541D503120125773F
:1017F300D603120125008003120125238003120161
:1018030025768003120125F58003120125AE81039D
:101813001201258F8203120125BA8303120125FFCA
:1018230083031201259884031201252A85031201DB
:1018330025C48503120125AE8903120125358A03C8
:10184300120125948B03120125B78B031201258105
:101853008C03120125118D03120125DDA60412014B
:101863002516A70412012533A70412012582A80413
:1018730012012522A9041201254CAA04120125D51F
:10188300AB04120125E7F70412012587F3041201C3
:1018930025B1F304120125B8FF0112012514F80440
:1018A300120125E2FF02120125E09102120125FE39
:1018B3009602E066701008A3E066700A08A3E0666B
:1018C300700408A3E06622C008C3E096F50808A3E5
:1018D300E096420808A3E096420808A3E09642086F
:1018E300A2D265D033E5087001D3D00822C3E796AE
:1018F3000809E7960809E7960809E79622C3E096E0
:1019030008A3E09608A3E09608A3E09622C008C3C4
:10191300E096F50808A3E096420808A3E09642087B
:1019230008A3E09645087001D3D00822080808E60A
:1019330030E7111221EB121947080808C64480C684
:1019430018181822181818E9799EC608CAC608CBB1
:10195300C608CCC6C370207996CACBCC7019798ED1
:10196300CBCC70137986CC700EF9802ACA33CACBDC
:1019730033CBCC33CC331930E7F2CCCBCA3350144E
:101983007004EA30E00DE4CA3ACACB3BCBCC3CCC82
:10199300500209C3E913C6CC182313C6CB18C6CA11
:1019A30018C6F9221219E720F01430E72B74FFFC54
:1019B300FBFA747F8022E4FCFBFA7480801AB48003
:1019C30008BC00F2BB00EF800F50EBF9E4C39AFAB6
:1019D300E49BFBE49CFCE499C6CC18C6CB18C6CAAE
:1019E30018C6F922E4C9C608CAC608CBC6D333034E
:1019F30008CCC63392F0C3947F402E94184019C983
:101A0300B90704CACBCC225025C309CA33CACB3386
:101A1300CBCC33CC33D9F422F4600DC9CCC313CB74
:101A230013CBCA13CAD9F6CC22E4FCFBFA2214FC6A
:101A3300FBFA22E6C33318461846184622E7C33397
:101A430019471947194722181818E6084608700A53
:101A5300E608C3337005E633F4220822191919E79F
:101A6300094709700AE709C3337005E733F422090C
:101A730022E6084608C3134608336002E633F4221D
:101A8300E7094709C3134709336002E733F4221216
:101A93001A746025121A836020121A367003021A10
:101AA30040080808E76670101819E766700A1819E5
:101AB300E76670041819E76622F422121A74601C90
:101AC300121A836017121A367007121A407001D364
:101AD30022C0D0121A407006D0D0B322C32233D012
:101AE300D0501430E0F6C3E7960809E7960809E7F3
:101AF300960809E796B32220E0D5E6970809E6970A
:101B03000809E6970809E697B322121A74601B12B4
:101B13001A836016121A367007121A40600CB32229
:101B2300C0D0121A407005D0D022C32233D0D05077
:101B33001330E0EBC3E7960809E7960809E7960830
:101B430009E7962220E0E4E6970809E6970809E604
:101B5300970809E6972200121A74604F121A8360DD
:101B630012E7548066F6121A4A7011121A40703B3B
:101B7300090909F4F618F618F618F622121A5F7016
:101B830015121A3608080860EAE6447FF6187680CC
:101B930018E4F618F622121A366016121A4070125A
:101BA300E4F608F608F608E65480F6090909181859
:101BB3001822EAC0E0EBC0E0ECC0E0EDC0E0E6874D
:101BC300F0A4FBACF008E687F0A42CFCE435F0FAB3
:101BD3001809E687F0A42C4B60027401CA35F0FCA7
:101BE300E433FB09E687F0D2F7A42CCB35F0FC19DC
:101BF30008E687F0A42BCC35F0FBE433FD0819E6A7
:101C030087F0D2E7A42C4ACB35F0CD3400FC09E6AB
:101C130087F0D2E7A42DCC35F0FDE433FA0918E6BA
:101C230087F0D2F7A42CCD35F0CA3400FC08E68740
:101C3300F0D2E7D2F7A42ACC35F07A7E20E70B0A5C
:101C4300CB33CBCD33CDCC33CC33CB335014700427
:101C5300ED30E00ED2F1E4CD3DCDCC3CCC3B500594
:101C6300DA05C2F1EB547FC63308E63392F0FBE7A3
:101C73003309E733C39A502D2B70190C0D4C4D705B
:101C8300151806E608C333700D20F10AA2F013F607
:101C9300E418800B4024E4F630F002768018F6183E
:101CA300F618F68024D33B14501074FFA2F013F6F9
:101CB300187680E418F618F6800FA2F013F618E6EB
:101CC3003303F618ECF618EDF6D0E0FDD0E0FCD0C7
:101CD300E0FBD0E0FA22121A836046121A74603DC8
:101CE300E9687008F618F618F618F622748067F794
:101CF300121D0D090909748067F722121A74601DF9
:101D0300121A837005191919801A121A4A701F12B0
:101D13001A5FC37003E667331919194007181818B7
:101D23002208080874FFF618F618F618F622121A95
:101D33005F6017121A40702192F0121A3670195010
:101D43001720F014080808090909E7F61819E7F637
:101D53001819E7F61819E7F622121A3660E6E86949
:101D6300701F0808E62480F608E436F618547FB49A
:101D73007F0CE654806007F6E418F618F62218186C
:101D830022E9C6CC08C6CD08C6CE08C6CFC0E0E857
:101D9300C0E0EAC0E0EBC0E009E9F809E7FA09E7C7
:101DA300FBE6F918E6F8C3EC98ED99EE9AEBC2E777
:101DB300F5F0EFC2E795F0500E600CEBCFFBEACEE7
:101DC300FAE9CDF9E8CCF8EAA2E7D2E7FAEB33FB7C
:101DD30013F5F0EEA2E7D2E7FEEF33FFC5F013A24F
:101DE300E730E601B313C5F0C3C0E0C0F07F00C322
:101DF3009BFB605B9418600C401AD0E023F9D0E0A1
:101E0300F8021EDC8AF0E9486003D2F0E4AFF0FA8E
:101E1300F9F8803BEB30E40D89F0EA6003D2F0E49B
:101E2300AFF0F9CAF8EB30E30D88F0EF6002D2F0BF
:101E3300AFF0E4CAC9F8EB54076014FBC3EA13FA22
:101E4300E913F9E813F8EF135002D2E0FFDBEDD00A
:101E5300E0C0E030E739C3E49FFFF5F0EC98FC42C3
:101E6300F0ED99FD42F0EE9AFE42F0D0E0F9D0E0B9
:101E7300F8E5F0607AE923F9EE20E742D8028067BB
:101E8300C3EF33FFEC33FCED33FDEE33FE80EAECBE
:101E930028FCED39FDEE3AFED0E023F9D0E0F8401E
:101EA30002801BC3EE13FEED13FDEC13FCEF135086
:101EB30002D2E0FF08B800067F7F74FF802EEF3365
:101EC30050178CF020F00260100CBC000C0DBD000C
:101ED300080EBE000408E860DFE933E813FFEE23D1
:101EE30013FE4F4D4C8008E95480FFE4FEFDFCEEE9
:101EF30033EF33F47004FCFD7E80D0E0FBD0E0FAD6
:101F0300D0E0F8D0E0CFC618CEC618CDC618CCC6E0
:101F1300F922121A74700418181822121A83700DF9
:101F230074FFF61819F61819F61819F622E75480F3
:101F330066F6121A36700F121A4070F014F608F68D
:101F430008F608F680D1121A40700CF608F60876E7
:101F53008008E6447F80EC121A62700C121A4D60FE
:101F6300BFE65480F6E480BB121A4D7005191919A7
:101F730080A5E869700C763F18768018F618F6E8A5
:101F8300F922E6CDC0E018ECC0E0E633CD33CDD383
:101F930013F6E719FCE7191933CC33C3947F400ECA
:101FA300CD9D502408E65480F6E418F6800FF4041F
:101FB3003D14501408E6447FF6187680E418F618AA
:101FC300F6D0E0FCD0E0FD22CCD313CCFD18E4C660
:101FD300CBC0E018E4C6CAC0E00808ED08C633E683
:101FE30013F618E433C675F003C3CA97CA09CB972F
:101FF300CB199C40047D08802EBD00030220BE1631
:10200300B6FF050606081618C3CA33CACB33CB334B
:10201300CA27CA09CB37CB193CC37D08803E187D3C
:102023000820E75CC633C6CA33CACB33CB33DDF1F2
:10203300D5F0EB30E77BCA97CA09CB974ACB199CFB
:10204300406F4B7025E620E0218066187D08C3CAE7
:1020530097CA09CB97CB199CD3C633C6CA33CACB0D
:1020630033CB3350C9DDE7D5F0E1D3E4C636C60838
:10207300C636C608C636C608C636C618181880310E
:10208300C3CA97CA09CB97CB199CB34097C633C62B
:10209300CA33CACB33CB33DD34D5F02EC6A2E0C668
:1020A30040C8CA27CA09CB37194A70BECB3CB48093
:1020B300B90808E63308E633601F181818D0E0FAA9
:1020C300D0E0FBD0E0FCD0E0FD22187D08CA27CA8F
:1020D30009CB37CB193CD3808013F618E4B67F11B4
:1020E300F618B6FF0EF618C60470D208087680807C
:1020F300CAF618F618F680C5080808EAC0E0EBC06F
:10210300E086F0E7A4FA180986F0E7A42AFA18098A
:1021130086F0E7A42AFA180986F0E7A42AFA1986B2
:10212300F0E7A4FBE5F02AFA190886F0E7A42BFBF5
:10213300E5F03AFA190886F0E7A42BFBE5F03AFA42
:1021430018180986F0E7A4C5F02BFBE43AFA19083E
:10215300E7C5F0C6A426F6E5F03BFBE43AFA188699
:10216300F0E7A4F6E5F00826F6E43B08F6E43A08BF
:10217300F6D0E0FBD0E0FA22E4CFC0E0E4CEC0E04A
:10218300E4CDC0E0E4CCC0E075F020C3E633F6084C
:10219300E633F608E633F608E633F6181818EC3398
:1021A300FCED33FDEE33FEEF33FFC3EC9709ED9700
:1021B30009EE9709EF97191919400FFFEC97FC09DE
:1021C300ED97FD09EE97FE191906D5F0BEECF70958
:1021D300EDF709EEF709EFF7191919D0E0FCD0E094
:1021E300FDD0E0FED0E0FF22181818E4C396F608ED
:1021F300E496F608E496F608E496F62260160808D4
:1022030008C6C313C618C613C618C613C618C61302
:10221300C6D5E0EA227009080808226016181818C3
:10222300C6C333C608C633C608C633C608C633C6D4
:10223300D5E0EA22E627F60809E637F60809E63785
:10224300F60809E637F622E026F608A3E036F60894
:10225300A3E036F608A3E036F622E026F008A3E072
:1022630036F008A3E036F008A3E036F022C3E69781
:10227300F60809E697F60809E697F60809E697F6D9
:1022830022C3E0C696F608A3E0C696F608A3E0C606
:1022930096F608A3E0C696F622C3E096F008A3E0FC
:1022A30096F008A3E096F008A3E096F022E657F62E
:1022B3000809E657F60809E657F60809E657F6222D
:1022C300E056F608A3E056F608A3E056F608A3E0A6
:1022D30056F622E056F008A3E056F008A3E056F0C5
:1022E30008A3E056F022E066F608A3E066F608A32A
:1022F300E066F608A3E066F622E0F608A3E0F60837
:10230300A3E0F608A3E0F622E6F008A3E6F008A3AC
:10231300E6F008A3E6F022E0FAA3E0FBA3E0FCA3C7
:10232300E0FD22EAF0A3EBF0A3ECF0A3EDF022CA68
:10233300C0E0E6F0A308DAFAD0E0FA22CAC0E0E08F
:10234300A3C582CCC582C583CDC583F0A3C582CC8A
:10235300C582C583CDC583DAE6D0E0CA22C3E4983B
:10236300F8E499F91223A18026C3E49AFAE49BFBCB
:10237300E920E7E91223A1E498F8E499F922C3E4F8
:1023830098F8E499F91223A1E498F8E499F9C3E4DD
:102393009AFAE49BFB22EB20E7CFE920E7E0B900C0
:1023A30010BB0008E88AF084F8AAF022E4FBC8FA1C
:1023B30022EB70227B10C833C8C933C9335007C31B
:1023C3009AC3DBF280069A50012ADBEAC833F4C8C9
:1023D300C933F4C9FA2275F008E4C833C8C933C94C
:1023E30033C99AC99B5004C92AC93BD5F0ECFBC831
:1023F30033F4C8E4C9FA22600D08C6A2E713C6186D
:10240300C613C6D5E0F322600C08C6C313C618C6AC
:1024130013C6D5E0F422700422600D18C6C333C678
:1024230008C633C6D5E0F41822251810AF08F518EE
:10243300400215198008F51840021519D2AF22C0C1
:10244300D0251810AF08F518500205198008F518A3
:1024530050020519D2AFD0D0222518F58210AF084B
:10246300F518400215198008F51840021519D2AF66
:10247300851983222518F582E43519F58322E4733F
:102483002518C582C0E0E51934FFC583C0E0E5180F
:10249300C3958224F810AF088583198582188008B4
:1024A300858319858218D2AFCEF0A3E520F0A378F7
:1024B30008E608F0A3DEFAEFF0A3E58124FAF8E6D4
:1024C30008F0A3E608F0A3E608F0A30808E608F07E
:1024D300A3E608F0A315811581D0E0FED0E0F8153E
:1024E3008115811581E8C0E0EEC0E0222518C58280
:1024F300C0E0E51934FFC583C0E0E518C395822425
:10250300F910AF088583198582188008858319859A
:102513008218D2AFCEF0A3E520F0A37808E608F046
:10252300A3DEFAEFF0A3E58124FBF8E608F0A3E6C7
:1025330008F0A30808E608F0A3E608F0A315811540
:1025430081D0E0FED0E0F815811581E8C0E0EEC04F
:10255300E022851983851882E0A3FEE0A3F52078A5
:1025630008E0A3F608DFFAE0A3FFE0A3C0E0E0A3DE
:10257300C0E0E0A3C0E0E0A3C0E0E0A3C0E010AF90
:10258300088582188583198008858218858319D266
:10259300AFD083D082020122851983851882E0A3FC
:1025A300FEE0A3F5207808E0A3F608DFFAE0A3FF36
:1025B300E0A3C0E0E0A3C0E0E0A3C0E0E0A3C0E08C
:1025C30010AF088582188583198008858218858352
:1025D30019D2AFD083D08222C0D02518C582C0E0E3
:1025E300E51934FFC583C0E0E518C3958224F310D1
:1025F300AF08858319858218800885831985821819
:10260300D2AFC8F0A3E9F0A3EAF0A3EBF0A37908F3
:10261300E709F0A3D8FAECF0A3EDF0A3EEF0A3EFF3
:10262300F0A3D0E0F0A3D0E0F0A3D0E0F0A3E52046
:10263300F0A3E5F0F0A322851983851882E0C0E0BA
:10264300A3E0F9A3E0FAA3E0FBA37808E0F608A36C
:10265300DFFAE0FCA3E0FDA3E0FEA3E0FFA3E0C0FC
:10266300E0A3E0C0E0A3E0F5D0A3E0F520A3E0A35E
:10267300F5F010AF088583198582188008858319C2
:10268300858218D2AFD082D083D0E0F8D0E0327404
:10269300048006740280027401C0E0F40412245C16
:1026A300D0E0122332227404800474028000CCC070
:1026B300E0EDC0E0E518C39CCCAD1950011D10AF8F
:1026C300068C188D1980068C188D19D2AF12233FF2
:1026D300D0E0FDD0E0FC22D083D082E9C0E0E493D7
:1026E300A3C386F0C5F095F0F908E493A386F0C57B
:1026F300F095F0700BE493A3C3994005E9048002BD
:10270300A3E475F002A42582F582E5F03583F58311
:10271300D0E0F9E493A3C0E0E493C0E022D083D0F7
:1027230082ECC0E0EDC0E0E493A3FCE493A3FDEDF1
:102733004C600D12276CEC24FFFCED34FFFD80EFA1
:10274300E493A3FCE493A3FDED4C600D1227ABECE3
:1027530024FFFCED34FFFD80EFD0E0FDD0E0FCE48E
:1027630093A3C0E0E493C0E022C0E0C3E4939608DF
:102773007401939618400FE49366700808740193EC
:10278300661870007019A3A3C3E4939608740193A9
:102793009618A3A3400DD0E0D0E0D0E002275CA3BD
:1027A300A3A3A3A3A3D0E022C0E0C0F088F0E493E6
:1027B3006670080874019366187000A8F0A3A370EC
:1027C3000BD0F0D0E0D0E0D0E002275CA3A3D0F0A0
:0327D300D0E02231
:1027D80074F51224EFEAFEEBFFEE2434F8EF340030
:1027E800F988088909EE2435F582EF3400F583E08D
:1027F800F8EE2437F582EF3400F583E0F50AEC852E
:102808000AF0A4FCAAF0850AF0EDA42AFDE82CF849
:10281800E43DF97A257B001223A1EA85088285091F
:1028280083F05407F87401B800028004C333D8FC5D
:10283800C0E0E0131313541FF8EE28F8EF3400F942
:10284800E8245DF582E93400F583D0E0F8E05860CB
:1028580008EE2434F582EF801EEE2436F582EF343C
:1028680000F583E0F5F0EA84A8F0EE28F8EF3400EC
:10287800F9E82438F582E93400F583E0F97F0402A9
:10288800259B74F51224EFEAFEEBFFEE2434F58263
:10289800EF3400F583E0C0E0EE2435F582EF340034
:1028A800F583D0E0F08E828F83A3A3A3A3A3A3A371
:1028B800C082C0838E828F83A3A3A3A3A3E0F8A3BF
:1028C800E0F9D083D082E0C398F508A3E099F50930
:1028D800EE2480F582EF3400F583E064017069EE40
:1028E8002481F582EF3400F583E0F8A3E0F98E82C5
:1028F8008F83A3A3A3A3A3A3A3E0FCA3E0FD8E82DD
:102908008F83A3A3A3A3A3E0FAA3E0FBC3EA9CEBF2
:102918009D5027C3EC98ED99402EC3EA98EB995047
:10292800277CF07D07EEFAEFFB120E3BEE2480F5D4
:1029380082EF3400F583E4F0800EC3EA98EB994007
:10294800E0C3EC98ED9950D9EE2434F8EF3400F94F
:10295800E8FCE9FDEE2435F582EF3400F583E0F874
:10296800EE2437F582EF3400F583E0F50AE50885B3
:102978000AF0A4F508AAF0850AF0E509A42AF509E1
:10298800E82508F8E43509F97A257B001223A1EA3D
:102998008C828D83F05407F87401B800028004C358
:1029A80033D8FCC0E0E0131313541FF8EE28F8EFF7
:1029B8003400F9E8245DF582E93400F583D0E0F8C5
:1029C800E0586008EE2434F582EF801EEE2436F5D8
:1029D80082EF3400F583E0F5F0EA84A8F0EE28F8F9
:1029E800EF3400F9E82438F582E93400F583E0F99A
:1029F800122FA0022885C082C0838518828519837A
:102A0800E0F8A3E0F9C3EA9CEB9D5012C3EC98ED03
:102A1800994019C3EA98EB99501279018010C3EADA
:102A280098EB9940F5C3EC98ED9950EE7900D08376
:102A3800D08222EAC39CFAEB9DFB22008521878580
:102A480022C622C0E0C0D0E8C0E0E9C0E0EAC0E0A9
:102A5800EBC0E0ECC0E0EDC0E0C008C009C00AC0AF
:102A68000BC082C083C0F0759B00906182E0A2E633
:102A78004003022B29E591A2E64003022B29759118
:102A8800BF9004A7E064057008120FD3120FDF800F
:102A980003120FD9752100121045E99004A8F079A6
:102AA80000121027120D637A017B009004A6E0F94A
:102AB800121369907803E064426003022B72900855
:102AC8007CE014F06003022B72C2AF122AD60078A1
:102AD8002AD0E0F618D0E0F6E59F5407F970059083
:102AE8008AE58003908AE978081222FCE9C4C0E0EC
:102AF8007829E65508F50808E65509F509740B78AC
:102B08000812240AD0E02508F8906270E0A2E74095
:102B1800F8E8C333906272F0906270E0D2E0F0801F
:102B280049E0A2E55024E591A2E5501E7591DF9099
:102B380004A7E0640D70139004C9E004F0642870E1
:102B480002E4F07A00E0F91210DB906181E0A2E380
:102B58005009E5E9A2E3500375E9F7A3E0A2E750BD
:102B680009E591A2E7500375917FD0F0D083D08218
:102B7800D00BD00AD009D008D0E0FDD0E0FCD0E0DE
:102B8800FBD0E0FAD0E0F9D0E0F8D0D0D0E032C005
:102B9800E0C0D0C082C083906183E0A2E05009E524
:102BA800BFA2E0500375BFFEE0A2E15009E5BFA255
:102BB800E1500375BFFDE0A2E25009E5BFA2E25073
:102BC8000375BFFBE0A2E35009E5BFA2E35003751C
:102BD800BFF7E0A2E45009E5BFA2E4500375BFEFD8
:102BE800E0A2E55009E5BFA2E5500375BFDFE0A20A
:102BF800E65009E5BFA2E6500375BFBFD083D08277
:102C08008088C0E0C0D0E8C0E0E9C0E0EAC0E0EBFE
:102C1800C0E0ECC0E0EDC0E0C0F0E5A7A2E6500FD0
:102C2800E5A1A2E6500953A7BF75A1BF122C6FE515
:102C3800A7A2E5500CE5A1A2E5500653A7DF75A1B0
:102C4800DFE5A7A2E15009E5A1A2E1500375A1FDC6
:102C5800E5A7A2E2500CE5A1A2E2500653A7FB7536
:102C6800A1FBD0F0022B8074F81224EF752101909B
:102C780004A7E064067015120F6D8A828B83A3A3E4
:102C8800A3A3A3A3E0FAA3E0FB120FC1A2AFE4330E
:102C9800FED2AF9004ADE0640170187A207B0090FA
:102CA80004A6E0F91213ED7A207B009004A6E0F95F
:102CB80012136F906182E0D2E6F090087BE0602109
:102CC80085C62280169004ACE064017008E5C654FD
:102CD800F84405F5C653BEFC122A44740165216008
:102CE800E4EEA2E092AF7F0102259B008E238F24A1
:102CF800858228858327851882851983E0CEA3E0FD
:102D0800CF852882852783EBC9EAC8EDCBECCA7545
:102D1800F010C3E833C8E933C9EA33CAEB33CBC38D
:102D2800EA9EF526EB9FF525B35004AB25AA26ECC1
:102D380033CCED33CDD5F0DAAE23AF242274F112C3
:102D480024EF8A088B098C0A8D0B740F122477786C
:102D58000C1222FC908B6578081222C3908B657840
:102D68000C1222C37808790C1218F05015780879DB
:102D78000C122270908B05780812191040157901F1
:102D88008013780C7908122270908B05780C121930
:102D98001040EB79007F0802259B74ED1224EF8A1E
:102DA800088B098C0A8D0B7413122477780C122265
:102DB800FC908B6578081222C3908B65780C1222E0
:102DC800C3780C79081218F040117808790C12228F
:102DD80070AA08AB09AC0AAD0B80227510007511FA
:102DE800007512007513017810790C122270781092
:102DF8007908122237AA10AB11AC12AD137F0C025E
:102E0800259B908B6578081222FC8A828B83780830
:102E18001222D67F0402259B74F51224EF8C828D32
:102E28008378081222FC8A828B83780812229CEA13
:102E38002404F8EB3400F98C828D83A3A3A3A3E0C8
:102E4800FCA3E0FD88828983C3E09CF0A3E09DF0A9
:102E580088828983C3E09420A3E0944E4022908A1C
:102E6800D178081222FC8A828B83780812225D8A24
:102E7800828B83A3A3A3A3E02420F0A3E0344EF025
:102E8800808074F51224EFE9FE900807E0FAA3E0C9
:102E9800FBEEC333F8E433F9747528F58274863988
:102EA800F583E02AF508A3E03BF509780812269691
:102EB800908ACD12231A122CF474021224428A0822
:102EC8008B098C0A8D0B741078081221FFAA08ABA5
:102ED800097F0402259B74F11224EF8A0C8B0D8C58
:102EE8000E8D0F740F122477E0FAA3E0FB74111211
:102EF8002477E0F508A3E0F5097413122477E0FEBF
:102F0800A3E0FF7808122696EA2401F508EB3400BE
:102F1800F509E4F50AF50B780C79081220FB908B7B
:102F28002178081222FC780C79081220FBAA0CAB35
:102F38000DAC0EAD0F122CF474021224428B09EA68
:102F4800450960047A0180027A00EC2AFCED34001D
:102F5800FDECF8EDF97A717B021223A18808890942
:102F6800E4F50AF50B8E828F83780812230BECF8B0
:102F7800EDF97A717B021223A18A088B097405780E
:102F8800081224198E828F83A3A3A3A3E508F0A3B4
:102F9800E509F07F0802259BC082C083E9906000A4
:102FA800F0D083D08222C0E074F21225DBA2AFE415
:102FB80033FED2AFC2C0E5D1A2E4500653D1EF121E
:102FC8001645EEA2E092AF7F0102263AC0E074F205
:102FD8001225DBA2AFE433FED2AFE589A2E15003AC
:102FE800121597758900C2C5EEA2E092AF7F010263
:102FF800263AC0E074F21225DBA2AFE433FED2AF6A
:10300800E58BA2E05003121597758B00C2E880D8B3
:10301800C0E0C0D0E8C0E0E5A8D2AFC2C7A2E7923E
:10302800AFD0E0F8D0D0D0E032C0E0C0D0E8C0E007
:10303800E9C0E0C008C009C082C083A2AFE433F988
:10304800D2AF9010FFE0F8A3E0687008539AFBA392
:1030580074018026C2E99010FFE0F5087401250884
:10306800F0747F2508F58274103400F583E0F5C10B
:103078009010FFE0C394804002E4F0E9A2E092AF30
:10308800D083D082D009D008D0E0F9D0E0F8D0D0F1
:03309800D0E03253
:10309C00FFFFFFFFFFFFFFFFC082C08390619074B2
:1030AC0004F0A37448F0A37402F09061807440F0B3
:1030BC009061BC7403F09061877419F09062657430
:1030CC001BF090619C740DF090619A7433F0A374B2
:1030DC0055F09061A0743AF0900879E064017009A1
:1030EC00C2919004AB746780059004AB7461F0904E
:1030FC0030A2E493906186F090309CE493F46027C6
:10310C00E493540FF8906185E0686012E5C6548032
:10311C004449F5C6E59E547F644970F8E8F053C6FF
:10312C0080E59E547F70FA79051210BD023A99C061
:10313C0082C083E5A8F853A87E906181E4F0A3F0E7
:10314C00A3F0C2BA539AFEC289759B00C2C275E93C
:10315C000075910075BF0075A91175B90590618155
:10316C00F0A374C0F0A3E4F0D2BA439A017480586F
:10317C0042A8023A99C082C08374F812242C90049D
:10318C00A9E0F8A3E0F9E84970030232AF9004A972
:10319C00E0544060237908851882851983AA82AB94
:1031AC0083120EAD851882851983AA82AB83120A0D
:1031BC00D59004A9E054BFF0E054806010790C7AEB
:1031CC009D7B08120EAD9004A9E0547FF0E0A2E0C4
:1031DC00503190619A7433F0A37455F09061A074DF
:1031EC003AF0900879E064017009C2919004AB74D4
:1031FC006780059004AB7461F0120ADB9004A9E0BF
:10320C0054FEF0E05402603190619A743FF0A37464
:10321C005AF09061A0747FF0900879E06401700915
:10322C00D2919004AB747180059004AB746AF01267
:10323C000ADB9004A9E054FDF0E0540460139030D4
:10324C00A0E493906186F0120AE19004A9E054FB8B
:10325C00F0E0540860139030A1E493906186F01272
:10326C000AE19004A9E054F7F0E054106013903098
:10327C00A2E493906186F0120AE19004A9E054EF65
:10328C00F0E05420600A120AE19004A9E054DFF047
:10329C00A3E05401600D120D75120AE79004AAE028
:1032AC0054FEF07408122442023A99C082C083E999
:1032BC00600814600A14600C80139030A080089091
:1032CC0030A180039030A2E493906186F0023A9989
:1032DC0074EC12248374F412242C851882851983BF
:1032EC00AC82AD8375838A7582F5740412233F908A
:1032FC0030A093F46003023469907808E0C3940220
:10330C0050030234497404122477AC82AD83758364
:10331C008A75820A740812233F8518828519838561
:10332C0082128583137404122477AC82AD83750EDC
:10333C00FF750FFF7FFF7E00750C48750D788015AB
:10334C0074086E70030233DC74096E70030233DC94
:10335C00740A6E607B850C82850D8378081222FCC2
:10336C008C828D83A909E50AC9F88810741878082D
:10337C001221FFE5104508F8C3E098A3E099850CED
:10338C0082850D8378081222FC40188C828D837400
:10339C001878081221FFE5104508F8E0C398F8A347
:1033AC00E0801C741878081221FFE5104508FAE932
:1033BC00FB8C828D83E0F8A3E0F9EAC398F8EB99D3
:1033CC00F9C3E8950EE9950F5006880E890FEEFFAC
:1033DC000EE50C2404F50CE50D3400F50DEEC3944C
:1033EC0013500302334C74FF650E700474FF650FA9
:1033FC0060238F087402780812241974482508F584
:10340C008274783509F58378081222FC851282853E
:10341C001383E508F0EC24020C0CED3400FD85124E
:10342C0082851383A3858212858313740C122477EF
:10343C00E5826C7003E5836D600302333A75080115
:10344C0075090078081226967402122477AC82ADA6
:10345C00837A287B0C1215737402122442740C129A
:10346C0024427F0C022555C082C0839061AE7468E3
:10347C00F0A3746AF090624574FBF0A304F053F46B
:10348C00FD43FE029008797401F09061A0E0643A6B
:10349C0090619A70237433F0A37455F09061A0740A
:1034AC003AF0740164017009C2919004AB746780A6
:1034BC00289004AB74618021743FF0A3745AF0908F
:1034CC0061A0747FF0740164017009D2919004AB17
:1034DC00747180059004AB746A0238317F04022544
:1034EC0055C082C083900857E06401701590085D48
:1034FC00E064016009E0700AA3E064017004790CD7
:10350C00802090086EE064017008900874E06401FB
:10351C0060EC900801E064017006900806E070DE33
:10352C007900023A99C082C08375E1F1900804E0F9
:10353C0060551460081460591460518059120D873D
:10354C009007FAE0F97AFB7B07121009908B1112A5
:10355C00231A121057908B5D12231A121015900813
:10356C0005E0F912102179011210B19007F8E0244E
:10357C0016F8A3E03400F98882898374B7F0A37439
:10358C000DF07900023A99120D8D80B4120D9380D2
:10359C00AF120D9980AA791280EA74F41224837503
:1035AC00D90D9007E9E0A2E0E4331313F89007FA81
:1035BC00E0C4333354C0484401F5D978F87907880E
:1035CC00828983A3A3A3E0F5D988828983A3A882E7
:1035DC00A983E864FE7003E9640770E378E979076E
:1035EC0088828983A3E0F5D988828983A3A882A9DC
:1035FC0083E864EF7003E9640770E575E195900763
:10360C00E9E0F97AEA7B0712100F90153B7433F05E
:10361C00A3740DF0A374F5F0A3740EF0A374F5F07D
:10362C00A3740EF0A374F5F0A3740EF0A37439F028
:10363C00A3740DF0A374F5F0A3740EF0A37451F001
:10364C00A3740DF090154974F5F0A3740EF0A374E7
:10365C00F5F0A3740EF0A374F5F0A3740EF0A3743C
:10366C00F5F0A3740EF0A374F5F0A3740EF0A3742C
:10367C00F5F0A3740EF09007F8E0F8A3E0F583885A
:10368C0082A3A378081222FC908AD5780812224AC9
:10369C00908B6578081222C39007F8E0240EF8A3EB
:1036AC00E03400F988828983780812230B9007F89C
:1036BC00E02414F8A3E03400F9888289837413F0B1
:1036CC009004A77402F00234E8C082C08390080A08
:1036DC00E02407F5D99007FAE0C4333354C0F5D988
:1036EC0078F8790788828983A3A3A3E0F5D9888227
:1036FC008983A3A882A983E864FE7003E964077038
:10370C00E390080AE0601F78F87907FAE82413F5CB
:10371C0082E93400F583E0F5D988828983A3A882F5
:10372C00A9831AEA70E690082AE02407F5D99007D5
:10373C00FAE0C4333354C04404F5D978F8790788D7
:10374C00828983A3A3A3E0F5D988828983A3A88265
:10375C00A983E864FE7003E9640770E390082AE02B
:10376C00601F78F87907FAE82433F582E93400F51C
:10377C0083E0F5D988828983A3A882A9831AEA7089
:10378C00E675E19590153B743FF0A3740DF0A374AE
:10379C00F5F0A3740EF0A374F5F0A3740EF0A374FB
:1037AC00F5F0A3740EF0A37439F0A3740DF0A374A8
:1037BC00F5F0A3740EF0A37451F0A3740DF09015F2
:1037CC004974F5F0A3740EF0A374F5F0A3740EF025
:1037DC00A374F5F0A3740EF0A374F5F0A3740EF0BB
:1037EC00A374F5F0A3740EF0A374F5F0A3740EF0AB
:1037FC00908AD112231A9007F8E0240EF8A3E03433
:10380C0000F9888289831223269007F8E02414F8A3
:10381C00A3E03400F9888289837412F09004A774B1
:10382C00018002F0A3F0023A99C082C08390080A8A
:10383C00E02407F5D99007FAE0C4333354C04402AE
:10384C00F5D978F8790788828983A3A3A3E0F5D901
:10385C0088828983A3A882A983E864FE7003E96443
:10386C000770E390080AE0601F78F87907FAE824FB
:10387C0013F582E93400F583E0F5D988828983A3B6
:10388C00A882A9831AEA70E675E19590153B744BF2
:10389C00F0A3740DF0A3744BF0A3740DF0A3744B50
:1038AC00F0A3740DF0A3744BF0A3740DF0A3744B40
:1038BC00F0A3740DF0A3744BF0A3740DF0A374512A
:1038CC00F0A3740DF090154974F5F0A3740EF0A3E9
:1038DC0074F5F0A3740EF0A374F5F0A3740EF0A3BA
:1038EC0074F5F0A3740EF0A374F5F0A3740EF0A3AA
:1038FC0074F5F0A3740EF0908AD112231A9007F885
:10390C00E0240EF8A3E03400F98882898312232680
:10391C009007F8E02414F8A3E03400F98882898336
:10392C007414F09004A77404023831C082C08390E0
:10393C00080AE02407F5D99007FAE0C4333354C0E1
:10394C004406F5D978F8790788828983A3A3A3E084
:10395C00F5D988828983A3A882A983E864FE7003C1
:10396C00E9640770E390080AE0601F78F87907FAB9
:10397C00E82413F582E93400F583E0F5D9888289CF
:10398C0083A3A882A9831AEA70E690082AE0240788
:10399C00F5D99007FAE0C4333354C04404F5D97810
:1039AC00F8790788828983A3A3A3E0F5D988828953
:1039BC0083A3A882A983E864FE7003E9640770E31B
:1039CC0090082AE0601F78F87907FAE82433F5822A
:1039DC00E93400F583E0F5D988828983A3A882A90C
:1039EC00831AEA70E675E19590153B7445F0A37463
:1039FC000DF0A374F5F0A3740EF0A374F5F0A3749A
:103A0C000EF0A374F5F0A3740EF0A374F5F0A37488
:103A1C000EF0A374F5F0A3740EF0A37451F0A3741C
:103A2C000DF090154974F5F0A3740EF0A374F5F035
:103A3C00A3740EF0A374F5F0A3740EF0A374F5F058
:103A4C00A3740EF0A374F5F0A3740EF0A374F5F048
:103A5C00A3740EF0908AD112231A9007F8E0240E6A
:103A6C00F8A3E03400F9888289831223269007F8A2
:103A7C00E02414F8A3E03400F9888289837415F0EB
:103A8C009004A77403023831E0F9122FA0D083D030
:103A9C0082020122C082C0839008617425F09008D4
:103AAC005F7401F0A3E4F07A01FB12103390084D1F
:103ABC00E02416F8A3E03400F98882898374C3F0FB
:103ACC00A3740DF090085EE06401701690085DE040
:103ADC007010790112109912106312109379001260
:103AEC0010A580A9C082C08374FA12242C900856A9
:103AFC00E064017008120D9F900856E4F075E1F136
:103B0C0090084DE02415F8A3E03400F988828983ED
:103B1C007401F0900858E064017076908A97C08226
:103B2C00851882851983AC82AD8375838AD08274A3
:103B3C000612233F75D90D90084FE0C4333354C09F
:103B4C004403F5D9784D790888828983A3A3A3E02F
:103B5C00F5D988828983A3A882A983E8645370036A
:103B6C00E9640870E3851882851983A882A9838883
:103B7C00828983E0F5D9A3A882A9837406122477DD
:103B8C00E582687003E5836970E575E195790180DC
:103B9C0002790012103990153B7425F0A3740FF0C4
:103BAC00A3742BF0A3740FF0A37425F0A3740FF07F
:103BBC00A37425F0A3740FF0A374F5F0A3740EF0A6
:103BCC00A374F5F0A3740EF0A37431F0A3740FF08A
:103BDC0090154974F5F0A3740EF0A374F5F0A3746A
:103BEC000EF0A374F5F0A3740EF0A374F5F0A374A7
:103BFC000EF0A374F5F0A3740EF0A374F5F0A37497
:103C0C000EF090084FE0F97A507B081210099008DA
:103C1C0061E0F9122FA0790112103F908B11122341
:103C2C001A121057908B5D12231A1210157900126C
:103C3C0010B190084DE02414F8A3E03400F9888208
:103C4C0089837416F09004A77405F0040232B174E1
:103C5C00F71224838908A808E875F006A4C8AAF00E
:103C6C002AF974D728FE740439FF900866E0F97AB3
:103C7C00677B08121009900874E0701A7900121012
:103C8C007B9007E9E0700B79007AEA7B0712100F42
:103C9C008009790180F3790112107B75E1F175D9F6
:103CAC0023900866E0C4333354C04405F5D97864D6
:103CBC00790888828983A3A3A3E0F5D988828983B4
:103CCC00A3A882A983E8646A7003E9640870E375A9
:103CDC00D90075D90075D90075D90075D90075D979
:103CEC0000EEF8EFF9E82404FAE93400FBE82422AA
:103CFC00F582E93400F583E0F5D988828983A3A89D
:103D0C0082A983EA687002EB6970E2EEF8EFF9E8D9
:103D1C0024031AE93400FBE82426F582E93400F583
:103D2C0083E0F5D988828983A3A882A983EA687085
:103D3C0002EB6970E2EE242BF582EF3400F583E0A0
:103D4C00F5D9EEF8EFF9E824021AE93400FBE8247F
:103D5C002CF582E93400F583E0F5D988828983A3B8
:103D6C00A882A983EA687002EB6970E2EEF8EFF9B9
:103D7C00E8242EF582E93400F583E0F5D9888289B0
:103D8C0083A3A882A983EA687002EB6970E2EEF85B
:103D9C00EFF9E82430F582E93400F583E0F5D988B1
:103DAC00828983A3A882A983EA687002EB6970E216
:103DBC00EEF8EFF9E82432F582E93400F583E0F50A
:103DCC00D988828983A3A882A983EA687002EB69E7
:103DDC0070E2EEF8EFF9E824050A0A0AE93400FB70
:103DEC00E8245DF582E93400F583E0F5D988828911
:103DFC0083A3A882A983EA687002EB6970E2EE24BF
:103E0C0037F582EF3400F583E0541FF8EE242AF5E1
:103E1C0082EF3400F583E0C43354E048F5D975E102
:103E2C009590153B74FBF0A3740EF0A37401F0A3F2
:103E3C00740FF0A374F5F0A3740EF0A374F5F0A353
:103E4C00740EF0A374F5F0A3740EF0A374F5F0A344
:103E5C00740EF0A37407F0A3740FF090154974F569
:103E6C00F0A3740EF0A374F5F0A3740EF0A374F524
:103E7C00F0A3740EF0A374F5F0A3740EF0A374F514
:103E8C00F0A3740EF0A374F5F0A3740EF090087305
:103E9C00E0F9122FA0908B1112231A121057908B4D
:103EAC005D12231A12101590600DE4F079011210B6
:103EBC00B19004A774060244B074EC1224839008E9
:103ECC0064E0F8A3E0F5838882A3A378101222FCA7
:103EDC00900875E0FAF875F006A4C8ACF02CF974EB
:103EEC000528F582740539F583E0FEA3E0FFEEC3E7
:103EFC0033FEEF33FF8E0CF50D750E00750F00853C
:103F0C00100885110985120A85130B908AD9780837
:103F1C0012224A78081226928510088511098512FA
:103F2C000A85130B7808790C1222377810790C1249
:103F3C00217BE4F50EF50F7808790C1222708A0CAF
:103F4C00750D007403780C1224197808790C122260
:103F5C0037908B6578081222C3AA08AB09AC0AAD5E
:103F6C000B122DA274041224428A088B09A808A9EA
:103F7C0009C3EE98EF995006E82EF8E93FF9E8905E
:103F8C00600EF0E9A3F0EEA3F0EFA3F090600D74D7
:103F9C00C1F002346EC082C0839007F8E0F8A3E051
:103FAC00F5838882A3A3A3A3A3A3E402382F74F7F9
:103FBC001224839004D5E0F875F006A4C8AAF02A60
:103FCC00F974D728F8740439F9E82405FAE93400AF
:103FDC00FB8A828B83E0FCA3E0FD88828983A3A308
:103FEC00A3A3A3A3A3A3A3ECF0A3EDF088828983DE
:103FFC00A3A3A3A3A3A3A3E024FFF8A3E034FFF996
:10400C008A828B83E8F0A3E90244B0C082C083901B
:10401C00084DE0F8A3E0F5838882A3A3A3A3A3A390
:10402C00E4F0A3F0900861023A94C082C083900837
:10403C0064E0F8A3E0F5838882A3A3A3A3A3A3E47D
:10404C00F0A3F0900873023A9402012274F6122441
:10405C00839061D0E0F87480C398FCEA2483F582E5
:10406C00EB3400F583E06004780480027800E824E7
:10407C000EF8ECC39850030241D97E0C90087DE4F5
:10408C00F0EA2477F582EB3400F583E090087EF0BB
:10409C00EA2478FCEB3400FD787F79087F028C826F
:1040AC008D83E088828983F08C828D83A3AC82AD72
:1040BC008388828983A3A882A9831FEF70E0EA24F6
:1040CC007AFCEB3400FD7F028C828D83E088828940
:1040DC0083F08C828D83A3AC82AD8388828983A389
:1040EC00A882A9831FEF70E0EA247CFCEB3400FD6E
:1040FC007F028C828D83E088828983F08C828D8311
:10410C00A3AC82AD8388828983A3A882A9831FEF85
:10411C0070E0EA247EFCEB3400FD7F028C828D8300
:10412C00E088828983F08C828D83A3AC82AD8388F6
:10413C00828983A3A882A9831FEF70E0EA2475FC0F
:10414C00EB3400FD8A828B83A3A3A3A3A3E0F50821
:10415C00A3E0F5098C828D83E02508F0A3E03509F6
:10416C00F07F028C828D83E088828983F08C828D33
:10417C0083A3AC82AD8388828983A3A882A9831F81
:10418C00EF70E0EA2483F582EB3400F583E06019EC
:10419C0075087D75090878081226967C0C7903122F
:1041AC000EE974021224427E1074012EF5D975D9D1
:1041BC000375827D758308EEFFE0F5D9A31FEF70C0
:1041CC00F875E195790412105D790180027900028D
:1041DC00493674F61224839061D0E0F87480C39849
:1041EC00FCEA2483F582EB3400F583E06004780468
:1041FC0080027800E8240AF8ECC39850030242CEFF
:10420C0075080890087D7401F07CF07D07787E7944
:10421C00087E058C828D83E088828983F08C828D68
:10422C0083A3AC82AD8388828983A3A882A9831ED1
:10423C00EE70E0EA2481FCEB3400FD8A828B83A3D0
:10424C00A3A3A3A3E0FEA3E0FF8C828D83E02EF05A
:10425C00A3E03FF07E028C828D83E088828983F01C
:10426C008C828D83A3AC82AD8388828983A3A88240
:10427C00A9831EEE70E0EA2483F582EB3400F5830B
:10428C00E0601A75087D75090878081226967C0876
:10429C007903120EE9740212244275080C7401257C
:1042AC0008F5D975D90375827D758308AE08E0F5DC
:1042BC00D9A31EEE70F875E195790412105D7901A1
:1042CC008002790002493674F7122483EAFEEBFF70
:1042DC009061D0E060030243CA75D91875D9037593
:1042EC00D903EEF8EFF9E82408FAE93400FBE824E6
:1042FC009CF582E93400F583E0F5D988828983A3A3
:10430C00A882A983EA687002EB6970E2EEF8EFF913
:10431C00E82402FAE93400FBE824A4F582E934002D
:10432C00F583E0F5D988828983A3A882A983EA68FA
:10433C007002EB6970E2EE2494F582EF3400F583A1
:10434C00E5822408F8E5833400F9E0F5D9A3E865A3
:10435C00827003E9658370F2EE2488F582EF3400F5
:10436C00F583E5822404F8E5833400F9E0F5D9A35C
:10437C00E865827003E9658370F275E1957908EE62
:10438C002494FAEF3400FB120EA17904EE2488FA7F
:10439C00EF3400FB120EA1790412105DEE2470F5BF
:1043AC0082EF3400F583E0F8A3E0F9EE2472F58295
:1043BC00EF3400F583E8F0A3E9F07901800279008D
:1043CC000244B174F7122483EAFEEBFF9061D0E053
:1043DC0060030244AC75D90E75D90375D904EE246B
:1043EC008CF582EF3400F583E5822408F8E58334FC
:1043FC0000F9E0F5D9A3E865827003E9658370F2F2
:10440C00EE2484F582EF3400F583E5822404F8E58C
:10441C00833400F9E0F5D9A3E865827003E965837C
:10442C0070F275E1957908EE248CFAEF3400FB12EA
:10443C000EA17904EE2484FAEF3400FB120EA17C59
:10444C0000EEF8EFF9ECFAC3E49AFA95E0FBEE2AE9
:10445C00FAEF3BFBEA248BF582EB3400F583E0C0EA
:10446C00E0E824ABF582E93400F583D0E0F00C8869
:10447C00828983A3A882A983ECC3940840C7EE2445
:10448C0070F582EF3400F583E0F8A3E0F9EE2472C6
:10449C00F582EF3400F583E8F0A3E9F079018002AE
:1044AC0079008001F07F01022555C082C08375D947
:1044BC000275D90375D90575E195EA2470F582EB7F
:1044CC003400F583E0F8A3E0F9EA2472F582EB34CA
:1044DC0000F583E8F0A3E9F07901023A9974F61239
:1044EC002483EAFEEBFF90087D7406F075087D7559
:1044FC00090878081226967C017903120EE97402D9
:10450C0012244275D90675D90375827D758308E02E
:10451C00F5D9A3E58264827004E583640870F075B4
:10452C00E1959004A7E06408701EEE2470F582EF0C
:10453C003400F583E0F8A3E0F9EE2472F582EF3451
:10454C0000F583E8F0A3E9F0790102493674F6121C
:10455C002483EAFEEBFF9061D0E0705E90087D74DE
:10456C000AF075087D75090878081226967C017981
:10457C0003120EE9740212244275D90675D903751B
:10458C00827D758308E0F5D9A3E58264827004E529
:10459C0083640870F075E195EE2470F582EF3400B9
:1045AC00F583E0F8A3E0F9EE2472F582EF3400F520
:1045BC0083E8F0A3E9F079018002790002493674AE
:1045CC00F6122483EAFEEBFF9061D0E0706678016E
:1045DC0090087D740BF09004A7E0640770197508BF
:1045EC007D75090878081226967C017903120EE96C
:1045FC0074021224427805740128F5D975D9037513
:10460C00827D758308E8FAE0F5D9A31AEA70F8758B
:10461C00E195EE2470F582EF3400F583E0F8A3E029
:10462C00F9EE2472F582EF3400F583E8F0A3E9F09B
:10463C0079018002790002493674F7122483EAFE6C
:10464C00EBFF75D90375D90375D90DEE24DEF58210
:10465C00EF3400F583E0F5D975E195790412105D1E
:10466C00EE2470F582EF3400F583E0F8A3E0F9EE68
:10467C002472F582EF3400F583E8F0A3E9F07901B8
:10468C000244B174F6122483EAFEEBFF9061D0E091
:10469C00F87480C398FAEE2483F582EF3400F58326
:1046AC00E06004780480027800E8240BF8EAC398F0
:1046BC0050030247657D0990087D7408F0EE24E5EF
:1046CC00F8EF3400F97A7E7B087C0888828983E0D5
:1046DC008A828B83F088828983A3A882A9838A82A9
:1046EC008B83A3AA82AB831CEC70E0EE2483F5824F
:1046FC00EF3400F583E0601D75087D7509087808B6
:10470C001226967C097903EEFAEFFB120EE974027D
:10471C001224427D0D74012DF5D975D90375827D56
:10472C007583088D08E0F5D9A31508E50870F675B2
:10473C00E195790412105DEE2470F582EF3400F5EA
:10474C0083E0F8A3E0F9EE2472F582EF3400F583F0
:10475C00E8F0A3E9F079018002790002493674F699
:10476C00122483EAFEEBFF9061D0E0F87480C398CA
:10477C00FAEE2483F582EF3400F583E060047804CC
:10478C0080027800E8240BF8EAC398500302482F03
:10479C007D0990087DEDF0EE24E5F8EF3400F97A10
:1047AC007E7B087C0888828983E08A828B83F088F0
:1047BC00828983A3A882A9838A828B83A3AA82ABD2
:1047CC00831CEC70E0EE2483F582EF3400F583E07B
:1047DC00601D75087D75090878081226967C097984
:1047EC0003EEFAEFFB120EE974021224427D0D74F3
:1047FC00012DF5D975D90375827D7583088D08E077
:10480C00F5D9A31508E50870F675E1957904121031
:10481C005DEE241DF582EF3400F583E4F0A3F0790E
:10482C00018002790002493674F6122483EAFEEB09
:10483C00FF9061D0E0F87480C398FAEE2483F5827F
:10484C00EF3400F583E06004780480027800E824FB
:10485C0008F8EAC39850030249347D0690087D7429
:10486C000CF09004C4E090087EF07AC57B04787F4D
:10487C0079087C028A828B83E088828983F08A8221
:10488C008B83A3AA82AB8388828983A3A882A98302
:10489C001CEC70E07AC77B047C028A828B83E088F4
:1048AC00828983F08A828B83A3AA82AB83888289D4
:1048BC0083A3A882A9831CEC70E0EE2483F582EF1D
:1048CC003400F583E0601D75087D750908780812C1
:1048DC0026967C067903EEFAEFFB120EE9740212AF
:1048EC0024427D0A74012DF5D975D90375827D7525
:1048FC0083088D08E0F5D9A31508E50870F675E175
:10490C0095790412105DEE2470F582EF3400F58376
:10491C00E0F8A3E0F9EE2472F582EF3400F583E8B9
:10492C00F0A3E9F07901800279007F020225557429
:10493C00F6122483EAFEEBFF9061D0E0F87480C39A
:10494C0098FAEE2483F582EF3400F583E060047866
:10495C000480027800E82404F8EAC3985003024A61
:10496C0015780290087DE8F0EE24F7F582EF34001C
:10497C00F583E090087EF0EE2483F582EF3400F5A9
:10498C0083E0601B75087D75090878081226967CF3
:10499C00027903EEFA120EE97402122442780674BC
:1049AC000128F5D975D90375827D7583088808E0CF
:1049BC00F5D9A31508E50870F675E195EE2474F5A4
:1049CC0082EF3400F583E4F0EE2480F582EF3400BE
:1049DC00F583E4F0EE241DF582EF3400F583E4F06A
:1049EC00A3F0790412105DEE240DF582EF3400F57E
:1049FC0083E0F8A3E0F9EE2472F582EF3400F5833E
:104A0C00E8F0A3E9F079018002790002493674F6E6
:104A1C001224839061D0E0F87480C398FCEA24835C
:104A2C00F582EB3400F583E06004780480027800B2
:104A3C00E82404F8ECC398405B790290087D740775
:104A4C00F0EA24F8F582EB3400F583E090087EF070
:104A5C00EA2483F582EB3400F583E0601875087D59
:104A6C0075090878081226967C0209120EE9740260
:104A7C001224427906740129F5D975D90375827D02
:104A8C00758308E9F8E0F5D9A318E870F875E19595
:104A9C0079018002790002493674F5122483E9FC0D
:104AAC00A2AFE433F50AC2AF7D0080010DEA246F9A
:104ABC00F582EB3400F583E0F8EDC398501A8D08BD
:104ACC00EA2508F8EB3400F9E8246BF582E93400A8
:104ADC00F583E06C70D68024EA246FF8EB3400F98F
:104AEC00E0FEEA2EFAEB3400FBEA246BF582EB34A1
:104AFC0000F583ECF088828983E004F0E50AA2E0FB
:104B0C0092AF7F0302255574F6122483A2AFE433CF
:104B1C00FDC2AFEA246FF582EB3400F583E014F0AC
:104B2C007C0060368C08EA2508F8EB3400F9E824A0
:104B3C006CF582E93400F583E0C0E0E8246BF58283
:104B4C00E93400F583D0E0F00CEA246FF582EB3405
:104B5C0000F583E0F8ECC39840CAEA246EF582EBCA
:104B6C003400F58374FFF0EA246AF582EB3400F527
:104B7C0083E4F0EDA2E092AF024936C082C083E537
:104B8C00A8F8C2AFEA246BF582EB3400F583E9F0A8
:104B9C00EA246AF582EB3400F583E4F0E8A2E792AC
:104BAC00AF023A9974F3122483EAFEEBFFECFAEDB0
:104BBC00FB8A828B83A3A3A3A3E0541FF0EE2436BD
:104BCC00F582EF3400F583E4F0F50AEEFCEFFD8A94
:104BDC00828B83E0C0E0EC245DF582ED3400F5833C
:104BEC00D0E0F0750B00E50A33333354F8F50C8A3A
:104BFC00828B83E0F508750900E50B78081223FA1F
:104C0C00E508A2E0502FEE2436F8EF3400F9888244
:104C1C008983E0F508EE2508F508EF3400F509E581
:104C2C00082438F582E5093400F583E50CF0888218
:104C3C008983E004F0050B050CE50BC3940840AF29
:104C4C00050A8A828B83A3AA82AB838C828D83A371
:104C5C00AC82AD83E50AC394055003024BDB7F05A0
:104C6C0002255574F71224839004D3E06403700773
:104C7C007A007B000244B17B0078D3790488828966
:104C8C0083A3A3A3A3A3A3E06003024F69EBF8756E
:104C9C00F006A4C8AAF02AF974D728F8740439F9D4
:104CAC0088828983A3A37401F088828983A3A3A338
:104CBC00E4F0EB88828983A3A3A3A3F0E82462F534
:104CCC0082E93400F5837401F0E82465F582E93457
:104CDC0000F583E4F0A3F0E82468F582E93400F5EC
:104CEC00837401F088828983A3A3A3A3A3E4F0A314
:104CFC00F088828983A3A3A3A3A3A3A3F0A3F0E8C2
:104D0C00240FF582E93400F5837401F0E82435F5BD
:104D1C0082E93400F583E4F0908B3D12231AE824E9
:104D2C0018F582E93400F583122326E8241CF58259
:104D3C00E93400F583E4F0E8241DF582E93400F54C
:104D4C0083E4F0A3F0E82480F582E93400F583E4F1
:104D5C00F0E82474F582E93400F583E4F0E8246982
:104D6C00F582E93400F5837480F0E8246AF582E971
:104D7C003400F583E4F0E8246FF582E93400F58320
:104D8C00E4F0E82467F582E93400F583E4F0E824E4
:104D9C00EDF582E93400F583E4F0E824EEF582E9E0
:104DAC003400F583E4F0E824EFF582E93400F58370
:104DBC00E4F0E824F0F582E93400F583E4F0E8242B
:104DCC00F1F582E93400F583E4F0A3F0E824F3F57F
:104DDC0082E93400F583E4F0A3F0E824F6F582E9E7
:104DEC003400F583E4F0E82483F582E93400F5839C
:104DFC00E4F0E824D3F582E93400F583E4F0E82408
:104E0C00D4F582E93400F583E4F0908B3D12231A3B
:104E1C00E824D5F582E93400F583122326908B3DE6
:104E2C0012231AE824D9F582E93400F583122326DB
:104E3C00E824DFF582E93400F583E4F0E824E1F5B9
:104E4C0082E93400F583E4F0E824DDF582E93400EE
:104E5C00F583E4F0E824E2F582E93400F583E4F02C
:104E6C00E824E3F582E93400F583E4F0E824F9F56D
:104E7C0082E93400F583E4F0A3F0E824FBF582E941
:104E8C003400F583E4F0A3F0E824FDF582E9340066
:104E9C00F583E4F0A3F0E824FFF582E93400F58310
:104EAC00E4F0A3F0E8FAE9FBEA2404FCEB3400FD9F
:104EBC00EA246BF582EB3400F58374FFF08A828B65
:104ECC0083A3AA82AB83EC6A7002ED6B70E2E8FA02
:104EDC00E9FB7CF07D078C828D83E0C0E0EA245DE9
:104EEC00F582EB3400F583D0E0F08C828D83A3AC9B
:104EFC0082AD838A828B83A3AA82AB83EC64F57028
:104F0C0003ED640770D0E8FAE9FB7CBA7D048C826F
:104F1C008D83A3E0C0E0EA24E5F582EB3400F58351
:104F2C00D0E0F08C828D83A3AC82AD838A828B839C
:104F3C00A3AA82AB83EC64C27003ED640470CF90BF
:104F4C0004D3E004F06401700D88828983A3A3A3C9
:104F5C00A3E09004D5F0E8FAE9FB024C800BE824BE
:104F6C0006F8E93401F9EBC394034003024C7C02CC
:104F7C004C89C082C0838A828B83A3A3A3E0600F79
:104F8C008A828B83A3A3A3E4F09004D4E014F09062
:104F9C0004D3E014F070069004D574FFF08A828B71
:104FAC0083A3A3E4F09007F5E0700D9004D4E064C3
:104FBC000170057900121027023A99C082C08378DB
:104FCC00D3790488828983A3A3A3A3A3A3A3E4F026
:104FDC0088828983A3A3A3A3A3A3F0E82406F8E9FA
:104FEC003401F9E864E57003E9640770D69004D3E2
:104FFC00E4F0A3F0A374FFF075E1F1023A9974F3B5
:10500C00122483750800750900750C00750AD77594
:10501C000B04AE0AAF0B8E828F83A3A3A3E0603F79
:10502C00E5084509700AEEF8EFF988088909802F20
:10503C00850882850983E0F8A3E0F5838882A3A321
:10504C001226A98E828F83E0F8A3E0F5838882A3D1
:10505C00A312231A122D457404122442E960C705C9
:10506C000CEE2406F50AEF3401F50BE50CC39403A2
:10507C0040A0850882850983A3A3A3A3E0F9024C71
:10508C006A74F612248378FF79FF7508007ED77F47
:10509C0004EEFCEFFD8C828D83A3A3A3E06064740B
:1050AC00FF68700374FF697025EC2474F582ED348D
:1050BC0000F583E064017011EC247AF582ED340084
:1050CC00F583E0F8A3E0F9803AEC242E80EDEC2493
:1050DC0074F582ED3400F583E064017014EC247AED
:1050EC00F582ED3400F583C3E098A3E09950148069
:1050FC00C7EC242EF582ED3400F583C3E098A3E0D1
:10510C009940C60508EE2406FEEF3401FFE508C3FE
:10511C009403500302509DC3EA98EB994004E8FABB
:10512C00E9FB02493674F6122483EAFEEBFF8E8209
:10513C008F83A3A3A3E0600F8E828F83A3A3A3E42A
:10514C00F09004D4E014F09004D3E014F0700690C6
:10515C0004D574FFF08E828F83A3A3E4F09007F53F
:10516C00E0700D9004D4E0640170057900121027F2
:10517C00EE2465F582EF3400F583E0F8A3E0F9E85E
:10518C00496029EE2465F8EF3400F988088909880C
:10519C0082F583E0FCA3E0FD9004D5E0FA7B0012DD
:1051AC000B0B850882850983E4F0A3F0EEFAEFFB84
:1051BC00120F6702493674F7122483EAFEEBFF8E56
:1051CC00828F83A3A3A3A3E0FA7B00120B53EEFA06
:1051DC00EFFB120E5F120F490244B1C082C0837CF8
:1051EC00007AD77B04EAF8EBF988828983A3A3A31E
:1051FC00E0601EE8246FF582E93400F583E060116D
:10520C00E8246BF582E93400F583E07004790180C1
:10521C00110CEA2406FAEB3401FBECC3940340C5F1
:10522C007900023A99C082C08378BA79048882895D
:10523C0083A3E4F088828983A3A882A983E864C24B
:10524C007003E9640470E69004BB02382BC082C082
:10525C008374FC12242C908B3D12231A85188285A2
:10526C001983122326120EA7E9851882851983F05B
:10527C00120EA77401122477E9F0120EA774021211
:10528C002477E9F085188285198312231A74040295
:10529C0032B174F6122483EAFEEBFFEC2403F8ED32
:1052AC003400F988088909EC2407F8ED3400F9E892
:1052BC00FCE9FD8C828D83E0F8A3E0F985088285FA
:1052CC000983E0FAA3E0FB1223A1EE240DF582EF93
:1052DC003400F583E8F0A3E9F08C828D83E0F8A329
:1052EC00E0F9850882850983E0FAA3E0FB1223A18B
:1052FC008B09EA45096013EE240DF582EF3400F5B5
:10530C0083E02401F0A3E03400F002493674F61275
:10531C002483EAFEEBFFEE242EF582EF3400F583B6
:10532C00E0FCA3E0FD780079FAECFAEDFB1223A186
:10533C00EE2470F582EF3400F583E8F0A3E9F07801
:10534C000079FAECFAEDFB1223A18B09EA4509600E
:10535C0013EE2470F582EF3400F583E02401F0A302
:10536C00E03400F002493674F0122483EAFEEBFFBD
:10537C00741012247778081222FC120FEB8A0C8B13
:10538C000D8C0E8D0F908ADD780C12224A908B6555
:10539C00780C1222C3780C1226928E828F83E0F83E
:1053AC00A3E0F5838882A3A312231A122D4574045B
:1053BC00122442E960030254C08E828F83E02402DF
:1053CC00F8A3E03400F9E8FAE9FB8A828B837808C9
:1053DC0012225D908B6578081222FC8A828B83786E
:1053EC00081222D6EE240BF582EF3400F583C0822E
:1053FC00C0838E828F83A3A3A3A3A3E02401F8A36D
:10540C00E03400F9D083D082E0687003A3E06970C7
:10541C000579010254C28E828F83A3A3A3A3A3A3F5
:10542C00A3E02401F0A3E03400F0EE2474F582EF45
:10543C003400F583E064017036EE2475F582EF34A8
:10544C0000F583E0F8A3E0F98E828F83A3A3A3A3D6
:10545C00A3A3A3E0687003A3E0697013EE2475F5B1
:10546C0082EF3400F583E02401F0A3E03400F0EE89
:10547C002480F582EF3400F583E064017036EE246D
:10548C0081F582EF3400F583E0F8A3E0F98E828F8A
:10549C0083A3A3A3A3A3A3A3E0687003A3E06970F1
:1054AC0013EE2481F582EF3400F583E02401F0A3A0
:1054BC00E03400F079007F0802255574F71224833C
:1054CC009004D5E0F875F006A4C8AAF02AF974D7B0
:1054DC0028FE740439FF8028EE2465F8EF3400F9B7
:1054EC0088828983E0FCA3E0FD88828983E4F0A3B1
:1054FC00F08E828F83A3A3A3A3E0FA7B00120B0B85
:10550C00EE2465F582EF3400F583E0F8A3E0F9E8CA
:10551C0049604FEE2464F582EF3400F583E0F50822
:10552C00780812269AEE2463F582EF3400F583E0B6
:10553C00F9EE2465F582EF3400F583E0FCA3E0FD81
:10554C00EEFAEFFB120E957401122442E96089EE1B
:10555C002465F582EF3400F583E0F8A3E0F9E8491F
:10556C0070137C007D008E828F83A3A3A3A3E0FA2B
:10557C007B00120B0B0244B174F2122483EAFEEB93
:10558C00FF890A740E122477E0FAEE2462F582EF9A
:10559C003400F583E0640160030256509061D0E062
:1055AC00F87480C398F50CEE2483F582EF3400F583
:1055BC0083E060047804800278008908E928F8E424
:1055CC003400F9E824020808E93400F9E50C98E401
:1055DC0099A2D265D0334068EA7005750B0280033E
:1055EC00750B01E0603975090078081226967A7DF2
:1055FC007B08120ECB740212244275087D750908C3
:10560C007808122696AC0AA90BEEFAEFFB120EE9FB
:10561C0074021224427404250AF50A7C7D7D0874F8
:10562C0001250AF5D9850BD9E50A600D8C828D838D
:10563C00F8E0F5D9A318E870F875E19579008006C3
:10564C007907800279FF7F06022555C082C083E965
:10565C0060208C828D83E08A828B83F08C828D8398
:10566C00A3AC82AD838A828B83A3AA82AB8319E914
:10567C0070E0ECFAEDFB023A9974F4122483E99091
:10568C0004A6F0120FF7907800E0C4540F5407648E
:10569C00037004793F8002797F75080675090078DC
:1056AC00081226967C947D047AEA7B0712156D7499
:1056BC0002122442900494E0F47049A3E0F4704484
:1056CC00A3E0F4703FA3E0F4703AA3E0F47035A3C8
:1056DC00E0F4703090780EE0900494F090780FE045
:1056EC00900495F0907810E0900496F0907811E08A
:1056FC00900497F0907812E0900498F0907813E072
:10570C00900499F090049A74FFF0A3F0A3F0A3F026
:10571C00A3F0A3F0900494E09004A0F0900495E022
:10572C009004A1F0900496E09004A2F0900497E00D
:10573C009004A3F0900498E09004A4F0900499E0F5
:10574C009004A5F09004C47406F0A3740DF0A3E4C7
:10575C00F0A37432F0A37401F09007FB74FFF0A374
:10576C00F0A3F0A3F0A3F0A3F09007FAE4F09008F4
:10577C0001F0A374A0F0A3E4F0A37403F0A37407E6
:10578C00F0A3E4F0A37428F0A3E4F0A304F0A3E4E2
:10579C00F090082AF090085074FFF0A3F0A3F0A347
:1057AC00F0A3F0A3F090084FE4F090085604F0A397
:1057BC00E4F0A3F0A37480F0A37402F0A37480F05F
:1057CC00A37402F0A3E4F0A304F0A3F0A3E4F0A309
:1057DC007425F0A3E4F0A3F090086774FFF0A3F035
:1057EC00A3F0A3F0A3F0A3F0900866E4F090086D8A
:1057FC0004F0A3E4F0A37480F0A37402F0A374800B
:10580C00F0A37402F0A37425F0A3E4F0A3F0A37446
:10581C0005F090087774FFF0A3E4F0900879F0900D
:10582C00087B04F0120D6F120C85120FB579017AFA
:10583C007C7B08120EAD90087CE075F01484E5F0CA
:10584C0004F0790C7A9D7B08120EAD120EC57A000D
:10585C009004A6E0F91213BD907803E06442705EE8
:10586C0090087CE014F07056C2AF12587900782A78
:10587C00D0E0F618D0E0F6E59F5407F97005908A51
:10588C00E58003908AE978081222FCE9C4C0E0782C
:10589C0029E65508F50808E65509F509740B78084A
:1058AC0012240AD0E02508F8906270E0A2E740F8D4
:1058BC00E8C333906272F0906270E0D2E0F0900432
:1058CC00D1E4F0A3F07A80FB9004A6E0F9121369FE
:1058DC0002691974F6122483EAFEEBFFEEA2E05083
:1058EC00489004A8E0C39480E0500FC333F8E4332D
:1058FC00F9743B28F5827415800EF4C333F8E43345
:10590C00F9744928F582741539F583E0F8A3E0F5AC
:10591C008388821224817A009004A6E0F91213BDC8
:10592C00EE6401FAEFFB025BB9540870030259CF25
:10593C00900875E0F875F006A4C8AAF02AF974D797
:10594C0028FA740439FB750800780812269AEA24A0
:10595C0032F582EB3400F583E0F508A3E0F5097429
:10596C0004780812240A7808122696EA2430F58264
:10597C00EB3400F5831226ADEA242EF582EB3400CD
:10598C00F583E0F508A3E0C313F509E50813F50862
:10599C0078081226967508EA750907780812269673
:1059AC009007E9E0FD7C008A828B83A3A3A3A3E08C
:1059BC00FA7B007900120B4D7409122442EE640834
:1059CC0002592FEE54106040750800780812269A80
:1059DC00E4F50978081226967808122696780812AB
:1059EC0026967508EA75090778081226969007E935
:1059FC00E0FD7C007A007B007902120B4D740912D9
:105A0C002442EE641002592FEE54026040750800D7
:105A1C00780812269AE4F509780812269678081266
:105A2C00269678081226967508EA750907780812E2
:105A3C0026969007E9E0FD7C017A007B00793C1208
:105A4C000B4D7409122442EE640202592FEE5404D9
:105A5C007003025AFE9004D5E0F875F006A4C8AAAB
:105A6C00F02AF974D728FA740439FBEA242AF5824F
:105A7C00EB3400F583E0F508780812269AEA243214
:105A8C00F582EB3400F583E0F508A3E0F509740426
:105A9C00780812240A7808122696EA2420F582EB5C
:105AAC003400F5831226ADEA242EF582EB3400F592
:105ABC0083E0F508A3E0C313F509E50813F50878AE
:105ACC00081226967508EA7509077808122696902A
:105ADC0007E9E0FD7C018A828B83A3A3A3A3E0FAF0
:105AEC007B007900120B4D7409122442EE640402FF
:105AFC00592FEE54406040750800780812269AE43D
:105B0C00F509780812269678081226967808122637
:105B1C00967508EA75090778081226969007E9E049
